:1000000002E70302083C000000000032000000008C
:1000100000000002BB4E000000000002054100008D
:1000200000000002D4A10000000000320000000027
:100030004A375F454355535F3031000000000000F0
:10004000000000320000000000000032000000004C
:10005000000000320000000000000032000000003C
:100060000000003200000000000000020119000042
:100070000000000000000000000000000000000080
:10008000000000320000000000000000000000003E
:1000900000000002BAAE00000000003200000000C4
:1000A00000000032000000000000003200000000EC
:1000B0000000000000000000000000000000000040
:1000C0000000000000000000000000000000000030
:1000D000000000320000000000000005783200003F
:1000E000C0D0C0E0C0F075D018AAC6ABC7BE3910EA
:1000F000EA2CF5C6EB3DF5C7C2C50E7F1C0202D047
:10010000C23B53C13F43C1400E7F1D0202D00202D9
:100110003BD23502023D020540203BC4C0D0C0E0C6
:10012000C0F075D018E5C6C39AF8E5C79BF9303121
:10013000E0E505B404030201F2C39402500805058A
:100140000201DA0201D7ECC333F506ED3340F4F5D2
:1001500007E8C39506F506E99507F507D2D55010CF
:10016000C2D5E506F42401F506E507F43400F507E9
:10017000E506C39CF506E5079DF5075021ED6011E6
:1001800013547FF5F0EC132506E5F0350750488051
:100190002AEC13547F2506E43507503B801DED60A3
:1001A0000EF5F0ECC39506E5F09507402A800CECBF
:1001B00013547FC39506E49507401C20D5057505AB
:1001C000038017E505B4030FAAC6ABC70505C22A0D
:1001D000C23AC239020299750502AC18AD19AAC615
:1001E000ABC7D23502053A203A5120394ED23A02F5
:1001F000053AE8C39CF506E99DF5075021ED60112D
:1002000013547FF5F0EC132506E5F03507404180E7
:10021000D6EC13547F2506E43507403480C9ED60E1
:100220000EF5F0ECC39506E5F095075023800CEC35
:1002300013547FC39506E495075015D22A7505001F
:10024000C232C23353F60F43E8F043F6F002053AE8
:10025000AAC6ABC7A23A9239C23ABE381EAC18AD94
:1002600019D23B53C13F43C180D293EA2CF5C6EB70
:100270003DF5C7C2C50E7F1B0202D05019AC18ADA8
:10028000190EBE1E097F0005405340038042EE4018
:1002900002941EFF803ABE3BA27E007F002005072D
:1002A000C214E540048021E590A2E240053030050B
:1002B000800D30300AD21453F9BFE540048009C2E2
:1002C0001443F940B23033235402F5407002D23661
:1002D000D235ED54F86004C232C233EF10342EB57B
:1002E0003C2B303310853034853135853233E4F59D
:1002F00030F531F532E540C3953D5403F541EFD279
:1003000040D289853E3C853F3DD234D233B4005D36
:10031000303253EA9536F538EB9537F539C0187811
:10032000BEE62402F5F0B4BE00400375F0B0A6F0BE
:10033000A8F0A63808A639E5F0C09275920590F9A4
:10034000EBF0C394B090F9DDC32582F582E58334E8
:1003500000F583E538F0E539A3F0D09278BFE644A4
:1003600001F6D018D246EF8A368B37D232B4130456
:100370007890A640B40835854043A23D9252D242BF
:10038000D289E543B2E123232480F8E543A23E3439
:100390000020E00D8610088611088612088613805A
:1003A0000B8614088615088616088617EFB54C0CC0
:1003B000D295C28CE4F58AF58CD28CEFB5720BC263
:1003C00095C28C858A74858C75EFB40B02C2F8B423
:1003D0000102D2F8EEB510698511F0C3EC33F8EDE7
:1003E000336012A4C8A9F08511F0A4E825F0F8E95B
:1003F0003400F98006E8A4A8F07900EA28F8EB397F
:1004000030050D20140AC5F07990E7B40316C5F045
:1004100053F6EFF5E588E443F610C2EC20140D30F6
:10042000050A80147990E7B4010EC5F053F67FF504
:10043000F588F443F680C2EFA252E59A92E2F59A6B
:10044000EEB512442052418513F0C3EC33F8ED337E
:100450006012A4C8A9F08513F0A4E825F0F8E934E7
:1004600000F98006E8A4A8F07900EA28F8EB3953EF
:10047000F6EFF5E588E443F610D2EC53F67FF5F598
:1004800088F443F680D2EFEEB514698515F0C3EC1D
:1004900033F8ED336012A4C8A9F08515F0A4E8255F
:1004A000F0F8E93400F98006E8A4A8F07900EA2819
:1004B000F8EB3930050D20140AC5F07990E7B40047
:1004C00016C5F053F6BFF5F388F243F640C2EE20AE
:1004D000140D30050A80147990E7B4020EC5F0536C
:1004E000F6DFF5E788E643F620C2EDA252E59A92E0
:1004F000E2F59AEEB516432052408517F0C3EC336F
:10050000F8ED336012A4C8A9F08517F0A4E825F02F
:10051000F8E93400F98006E8A4A8F07900EA28F8A0
:10052000EB3953F6BFF5F388F243F640D2EE53F6BB
:10053000DFF5E788E643F620D2EDD0F0D0E0D0D06A
:1005400032C0D0C0E0C0F0C082C08375D000C0000F
:10055000C2AFC28EE58D6003758BFFE58B24CBF5B2
:100560008B74FA3400F58DD28ED2AFD54605754620
:1005700014D24830683C0578E578640170057599B7
:1005800000801AE578643270147578000551E551E1
:100590006403700975783275AAD075BA03E578647A
:1005A000BE700C755100757800C268D269D2AC0279
:1005B0000712206967207923309C18207B15E57885
:1005C000C394284013C29C53BEF7C27AD27B75787D
:1005D000008005307B02057830793F0578E5786446
:1005E000147037F578789206E66401700C78A88666
:1005F000AA78917600D29C8021E6C394FA401BC26F
:100600009CC279C27DC27EE4F579F57AF57BF57CF2
:10061000F57D7891F612E75ED29C803C05783079C2
:1006200034209C0FE578C39402402A78917600D25A
:100630009C8022E578C394FE401BC29CC279D27B89
:10064000D27C75780C90F603E064A07005755106B5
:10065000800375510E020712205654E57C54107029
:1006600006E57C5420604890F960E0602414F09026
:10067000F961E0603A14F07036E57C54106006C20F
:10068000ECC2EF802AE57C54206024C2EEC2ED80EB
:100690001E43E8F07409F090F962E0601214F07003
:1006A00008537CEF537CDF800690F9617408F020DA
:1006B0005660E57C540F605A90F95EE0603614F0A5
:1006C00090F95DE0604C14F07048E57C30E0075331
:1006D000F6FBC2EA803C30E10753F6FDC2E9803206
:1006E00030E20753F6FEC2E8802830E32553F6F7E0
:1006F000C2EB801E43E80F90F95FE0601514F070C4
:1007000005537CF0800C90F95E7409F090F95D74EB
:1007100005F03045030207CEE5676003D5670EE5B7
:1007200064C39565400A30E70C747F80080207CEE9
:1007300020E70274807013E56660F2B4FF02800364
:10074000B401067566000207CEE42480F5F0D23FBE
:10075000E5662480B5F002803250189060CCE493B6
:10076000F5F0E566B5F002802204F566701D756649
:100770000180189060CCE493F404F5F0E566B5F0E0
:1007800002800814F56670037566FFE56620E70FC2
:10079000906137E56693F567056575F000800DF4A7
:1007A0000490613793F567156575F0029060CDE4AC
:1007B0009325F0F5F0E5FAA2E292E0A2E192E1548D
:1007C0000B25F020E10563FA02800363FA04C243BB
:1007D00075DC0375DA0020DCFDE5D91043F2D24365
:1007E00090F80CF0F5F090A35893C3C2AF2530C534
:1007F000F005839335315002800C85F030F531E5FA
:1008000032046002F532D2AF30010D057653763FE7
:10081000E576B57700B392FA30B50D103C02800A48
:10082000057F054A05568002D23CD000D083D08295
:10083000D0F0D0E0D0D0308F02D21132C0D0C0E0A2
:10084000C0F0C092759200C082C08375D00820426B
:10085000030215BAC242A874A97512AD5E90F8BA27
:10086000E0FA0582E0FB8AE988ED8BEA89EE000078
:100870000000A8E9A9EAAAEBABECE54323FC74A0CD
:100880002CF8A60A08A60B850A08850B0990FF41DB
:10089000E8F00582E9F090F96EE543232582F582C0
:1008A000E0FA0582E0FB90FA8EEAF00582EBF012A6
:1008B000ADB2400B90FA8EE0F80582E0F980099025
:1008C000FF41E0F80582E0F990F966E543232582CF
:1008D000F582E0FA0582E0FB12ADB2905F7CE49312
:1008E000F5F012AD2190F881E025F090F881F0E468
:1008F00038F8E439F990F966E543232582F582E07A
:10090000FA0582E0FB12ADABE9F01582E8F0303772
:1009100016905F6FE493B54900500990F965E0B413
:10092000FF0040060209E402096B90FF41E0F80570
:1009300082E0F990F934E0FA0582E0FB12ADB29062
:100940005F52E493F5F012AD2190F937E025F09075
:10095000F937F0E438F8E439F912ADAB90F934E83E
:10096000F00582E9F012B6E30209E4E490F965F0DB
:1009700090F943E0F5F012AD0FE9600678FF790FCA
:10098000800B850809A8F012AD9F12AD8B90F96E0F
:10099000E543232582F582E8F00582E9F090FA8E9E
:1009A000E8F00582E9F090FF41E0FA0582E0FB9073
:1009B000FA92E0F80582E0F912ADB2401E90FA8E8C
:1009C000E0F80582E0F912ADB2501990F9D1E0F8E3
:1009D0000582E0F912ADB240028009A94390B6D376
:1009E000E993427130530302146B90F9EBE0C39426
:1009F000B0FD90F9DDC32582F582E5833400F583EF
:100A0000E0F8A3E0F9E54330E0067A007B80800956
:100A100090FA2DE0FA0582E0FB8AE988ED8BEA89FD
:100A2000EE00000000AAE9E5EAA8EBA9ECA2E7E8DD
:100A300033F8E933F9ED90FA2FC32582F582E58387
:100A40003400F583E8F0A3E9F078BEE6C394B06023
:100A500002C313FD305B00EDC3940350032407C3AE
:100A600033242FF5827583FAE0FAFEA3E0FBFFED55
:100A7000C3940250032407C333242FF5827583FAED
:100A8000E0F8A3E0F912ADB2500EE4F8F990F9EDF8
:100A9000F090F9EEF0020BE190F9EEF0E890F9ED4C
:100AA000F0EDC3940450032407C333242FF582755B
:100AB00083FAE0F8A3E0F9EDC3940050032407C3E0
:100AC00033242FF5827583FAE0FAA3E0FB12ADB26E
:100AD000500BC3E8F42401F8E9F43400F990FA0962
:100AE000E8F00582E9F088E989EA75ED0475EE0021
:100AF00000000000AAE9ABEAE5EDE5EE90F9F3EAC3
:100B0000F00582EBF090F9EDE0F80582E0F912AD26
:100B1000B25006E4F8F9020BE190FA03E8F005821E
:100B2000E9F075E90E75EAE875EBF575ECCE8EED3A
:100B30008FEE000000000000A8E9A9EAAAEBE5ECAE
:100B4000E5EDE5EE75E90088EA89EB8AEC75EF01E1
:100B5000000000000000A8E9A9EAAAEBABEC88E9D4
:100B600089EA8AEB8BEC8EED8FEE0000000000002E
:100B7000A8E9A9EAAAEBABECE5EDE5EE88E989EA9C
:100B80008AEB8BEC75EF01000000000000A8E9A9DA
:100B9000EAAAEBABEC88E989EA8AEB8BEC8EED8F65
:100BA000EE000000000000A8E9A9EAAAEBABECE522
:100BB000EDE5EE90FA07E8F00582E9F090FA03E03F
:100BC000FA0582E0FB8AE988ED8BEA89EE000000F5
:100BD00000A8E9A9EAAAEBABECEA4B600478FF793C
:100BE000FF90F93DE030E70A90FAA0E020E703E447
:100BF000F8F990F9F9E8F00582E9F090F9FBE5439E
:100C00002354FE2582F582E5833400F583E8F0A3C2
:100C1000E9F090FA0FE0F5F0E9B5F00090FA0BE09A
:100C2000B392E4F0501090B6DBE54393F5F090FA00
:100C30000BE045F0800F90B6DBE54393F4F5F090C0
:100C4000FA0BE055F0F090FA10E5432354FE2582AC
:100C5000F582E0F80582E0F9905FBF3059039060BB
:100C6000C1E493F404F5F012AD0F890B880A90F9F2
:100C7000F9E0F80582E0F9905FBF3059039060C158
:100C8000E493F5F012AD0F12ADAB90FA10E54323EB
:100C900054FE2582F582E8F00582E9F090FA19E029
:100CA000F5F0E9B5F00090FA1FE0B392E4F05010CF
:100CB00090B6DBE54393F5F090FA1FE045F0800F26
:100CC00090B6DBE54393F4F5F090FA1FE055F0F0B1
:100CD00012BA3D8EE975ED038FEA75EE0000000053
:100CE00000AEE9AFEA85EBF0E5ECEDC39405500307
:100CF0002407C333242FF5827583FAE0FAA3E0FBBF
:100D00008E088F0912ADABE5F03400FC880E890F18
:100D1000EDC3940450032407C333242FF582758355
:100D2000FAE0FAA3E0FB8AE975ED038BEA75EE00C1
:100D300000000000AAE9ABEA85EBF0E5ECEDC39416
:100D40000250032407C333242FF5827583FAE0F899
:100D5000A3E0F912ADABE5F03400F5F0E8A80EFA27
:100D6000E9A90FFB12ADB2EC95F0FC5010C3E8F40A
:100D70002401F8E9F43400F9ECF43400FC60047860
:100D8000FF79FF880A890B90FA07E0F80582E0F9FD
:100D900012AD8B88E98AED89EA8BEE00000000A88D
:100DA000E9A9EAE5EB85ECF045F0600478FF79FF0E
:100DB000905FBC3059039060C2E493F5F012AD0F20
:100DC000905FBDE493F5F012AD0F12AD5E90F9F5B2
:100DD000E8F00582E9F0905FBC3059039060C2E40E
:100DE00093F404F5F090F9F7E0F80582E0F912AD1C
:100DF0000F90F9F5E0FA0582E0FB12ADABE43400A8
:100E0000F5F090FA1BE8F00582E9F0AAF07B00907B
:100E1000FA1DEAF00582EBF0E5F0600478FF79FF57
:100E200090F93DE030E703E4F8F990F9F7E8F005D0
:100E300082E9F0205B0302146B90F93EE020E103AD
:100E400002146B90FA73E004700114F0F5F0905FF7
:100E5000DAE493B5F0004003021470E54330E00398
:100E6000021470EDC3940150032407C33324B0F877
:100E7000EDC3940550032407C33324B0F9E687F08B
:100E8000870EC395F0FA08E60987F0870F95F050B2
:100E900008E490F9A9F00214696003021469EA9069
:100EA000F9A9F075F003A4C5F0600375F0FFE5F053
:100EB000240275F0048490F9ABF0F5F090F9A9E004
:100EC000C395F090F9AAF0EDC3940450032407C32E
:100ED0003324B0F8E6FA08E6FB90F9E5EAF005827B
:100EE000EBF08E088F0912ADB290F9AAE0FA7B0000
:100EF00012ADAB90F9ACE8F00582E9F0EDC39402D5
:100F000050032407C33324B0F8E6FA08E6FB90F94F
:100F1000E1EAF00582EBF08E088F0912ADB290F98C
:100F2000ABE0FA7B0012ADAB90F9AEE8F00582E9D8
:100F3000F0E9A2E790F9ADE0405372E7403F90F945
:100F4000ACE0FA0582E0FB12ADB2401490FA21EA5F
:100F5000F00582EBF090F9E5E0FA0582E0FB806EA7
:100F600090F9AEE0F80582E0F990FA21E8F0058208
:100F7000E9F090F9E1E0FA0582E0FB805178007930
:100F80008090FA25E8F00582E9F002146982E050C9
:100F9000EC90F9ACE0FA0582E0FB12ADB25014908F
:100FA000FA21EAF00582EBF090F9E5E0FA0582E03B
:100FB000FB801B90F9AEE0F80582E0F990FA21E899
:100FC000F00582E9F090F9E1E0FA0582E0FB90FAA1
:100FD00023EAF00582EBF090FA21E0F80582E0F9CF
:100FE00012ADAB90FA27E8F00582E9F090FA23E021
:100FF000F80582E0F912AD50890B880A90FA27E0D3
:10100000F80582E0F975E90075EA0088EB89EC8A59
:10101000ED8BEE000000000000A8E9A9EAE5EBE591
:10102000ECE5EDE5EE90FA25E8F00582E9F090F9BF
:1010300042E030E00E905FFAE493F8905FFBE493B7
:10104000F9800C905FC2E493F8905FC3E493F912C7
:10105000AD3E90F940E090FA572582F582E0FA051E
:1010600082E0FB8AE988ED8BEA89EE00000000ACA3
:10107000E9ADEAAEEBAFEC90F940E090FA4B258297
:10108000F582E0FA0582E0FB8AE988ED8BEA89EED9
:1010900000000000A8E9A9EAAAEBABECEC2AFCED01
:1010A0003BFDEE3400FEEF3400FF90FA25E0F8053A
:1010B00082E0F990F942E030E00E905FFAE493FAB2
:1010C000905FFBE493FB800C905FC2E493FA905F27
:1010D000C3E493FB8AE988ED8BEA89EE0000000007
:1010E000A8E9A9EAAAEBABECE82CF8E93DF992F7FC
:1010F00090F940E090FA4B2582F582E8F00582E90C
:10110000F0A2F7EA3EFAEB3FFB90F940E090FA5785
:101110002582F582EAF00582EBF090F941E020E0CB
:10112000030213D0740290FA572582F582E0FA0583
:1011300082E0FB90FA25E0F80582E0F912ADB2906A
:10114000FA3DE8F00582E9F0E930E73712AD3E906C
:101150005FC6E493FA905FC7E493FB8AE988ED8B5E
:10116000EA89EE00000000E5E9A8EAA9EB85ECF0C9
:101170002480E83400F8E93400F912AD8B12AD3E5A
:101180000211B1905FC6E493FA905FC7E493FB8AC3
:10119000E988ED8BEA89EE00000000E5E9A8EAA9FC
:1011A000EB85ECF02480E83400F8E93400F912AD66
:1011B0008B90FA3FE8F00582E9F090FA43E0F805F9
:1011C00082E0F9E930E73112AD3E880A890B905F81
:1011D000C6E493F8905FC7E493F912AD3E8AE988BC
:1011E000ED8BEA89EE0000000085E9F0E5EAA8EB66
:1011F000A9EC12AD3E021220880A890B905FC6E46A
:1012000093F8905FC7E493F912AD3E8AE988ED8BBD
:10121000EA89EE0000000085E9F0E5EAA8EBA9EC18
:1012200090FA3FE0FA0582E0FB12ADAB90FA43E89A
:10123000F00582E9F0E930E70312AD3E90FA47E8A5
:10124000F00582E9F090FA45E0F80582E0F9E9302E
:10125000E73112AD3E880A890B905FC6E493F8909F
:101260005FC7E493F912AD3E8AE988ED8BEA89EE17
:101270000000000085E9F0E5EAA8EBA9EC12AD3E1C
:101280000212AB880A890B905FC6E493F8905FC79F
:10129000E493F912AD3E8AE988ED8BEA89EE00000D
:1012A000000085E9F0E5EAA8EBA9EC90FA3FE0FA46
:1012B0000582E0FB12ADAB90FA45E8F00582E9F05B
:1012C000E930E70312AD3E90FA49E8F00582E9F013
:1012D00090FA47E0FA0582E0FB12ADB2400B90FABB
:1012E00049E0F80582E0F9800990FA47E0F80582C4
:1012F000E0F990FA41E8F00582E9F090F942E0F572
:10130000F020E01A905FCEE493FA905FCFE493FB75
:1013100012ADB2E5F092E090F942F0021469905FEC
:10132000CCE493FA905FCDE493FB12ADB25003028C
:101330001469E5F054F090F942F0905FD0E4939096
:10134000FA63F090FA65F090FA67F0905FD1E49359
:1013500090FA64F090FA66F090FA68F0905FC8E452
:101360009390FA41F090FA43F0905FC9E49390FAB9
:1013700043F090FA44F0905FCAE49390FA45F090FD
:101380005FCBE49390FA46F0E490FA2BF090FA2CBD
:10139000F090FA2DF0748090FA2EF075F00C90FA1F
:1013A0004BE4F0A3D5F0FB75F00690FA57E4F0A3F8
:1013B000A3D5F0FA75F00690FA587480F0A3A3D57F
:1013C000F0FAE490FA25F0748090FA26F00214699D
:1013D00020E10302140490FA63E0F80582E0F9E8E2
:1013E000C39401F8E99400500E90F942E0A2E09213
:1013F000E190F942F0E4F8F990FA63E8F00582E947
:10140000F002146920E20302143890FA65E0F8054E
:1014100082E0F9E8C39401F8E99400500E90F94293
:10142000E0A2E092E290F942F0E4F8F990FA65E87F
:10143000F00582E9F002146920E30302146990FACE
:1014400067E0F80582E0F9E8C39401F8E9940050F8
:101450000E90F942E0A2E092E390F942F0E4F8F94C
:1014600090FA67E8F00582E9F08005E490FA73F0FD
:1014700090FA0BE0F5F090FA1FE045F0C5F090FA15
:1014800081E055F090F8CFF0607DE5432390149112
:101490007380068020803A805490F8CFE030E06777
:1014A00090F8CEE0F5F090F8CCE0C325F0F0A3E0A2
:1014B0003400F0805290F8CFE030E14B90F8CEE06D
:1014C000F5F090F8CAE0C325F0F0A3E03400F08016
:1014D0003690F8CFE030E22F90F8CEE0F5F090F8BB
:1014E000C8E0C325F0F0A3E03400F0801A90F8CFF4
:1014F000E030E31390F8CEE0F5F090F8C6E0C325B5
:10150000F0F0A3E03400F0E54320E01390F93DE073
:1015100020E70C90FA78E004700280060215B6020B
:1015200015BA90F8CCE0F5F0A3E0C5F090FA79F0A8
:10153000A3C5F0F0A8F0F990F8CAE0F5F0A3E0C573
:10154000F090FA7BF0A3C5F0F0C5F0C328F8C5F021
:1015500039F990F8C8E0F5F0A3E0C5F090FA7DF015
:10156000A3C5F0F0C5F028F8C5F039F990F8C6E049
:10157000F5F0A3E0C5F090FA7FF0A3C5F0F0C5F058
:1015800028F8C5F039F9500478FF79FFE890FA831C
:10159000F0E9A3F0E490F8CCF0A3F090F8CAF0A33F
:1015A000F090F8C8F0A3F090F8C6F0A3F090FA829B
:1015B000E04401F0743790FA78F02040030223737E
:1015C000C240E533700302164503547FF5F0E5345D
:1015D00025F0F534E5353400F53550067534FF75E2
:1015E00035FF8534E98535EA8533ED75EE00000079
:1015F0000000A8E9A9EAE5EDE5EE204C2DC3E8944A
:10160000E8F8E994035002E4F8F9E9702D20532A30
:10161000906062E493F5F0E8C3921E95F0501B9041
:10162000F80CE0C39407921EC2267800790090F867
:1016300008E8F00582E9F0021645C21E90F808E8B5
:10164000F00582E9F0304515905F71E49390F94917
:10165000F0E490F989F090FAACF0021723A21D7221
:101660002540E590F98CE0FA75F00112A558F9D201
:101670004390606BE493F5F0E9C395F040399060D6
:101680006CE493F5F0E9C395F0502C89F090F827BD
:10169000E0C5F0C395F05001E4F5F0906068E49384
:1016A000A4E5F090F98CF090606AE493C395F05053
:1016B0000625F090F98CF0202E2B306D2890FA94AE
:1016C000E030E02190FAACE004B407004002740777
:1016D000F5F0F0907856E5F09390F949F0E490F940
:1016E00089F0021723E490FAACF090F98CE0C39AE9
:1016F00012ADDBB40200400B905F71E49390F949A6
:10170000F08020905F72E493F5F090F989E004B5E1
:10171000F000400B906074E49390F949F0800490DD
:10172000F989F090F808E0F80582E0F9906063E448
:1017300093F5F0E96008C395F0B392268002C226C3
:10174000A21E7226505BA21D72254035907208E5DC
:101750005293FB90726DAA5712AE49F5F09063ACAC
:10176000E54E93A4F8A9F0305911908F98E54E9367
:10177000F5F012AD0F12AD9302189F12AD9F021833
:101780009F9060DFE493F5F09063ACE54E93A4F88E
:10179000A9F012AD9F12AD9F90F808E8F00582E91C
:1017A000F0E954FE600474FF8004E913E81390FF2D
:1017B00048F090F808E0F80582E0F9C2AFE5388516
:1017C00039F0D2AFF5E988ED85F0EA89EE00000046
:1017D00000A8E9A9EAAAEBABEC88E989EA8AEB8BD5
:1017E000EC75EDE875EE03000000000000A8E9A923
:1017F000EAE5EBE5ECE5EDE5EE90F945E0F5F01214
:10180000AD0F12AD50906073E493FB906072E4935F
:10181000FA12ACF790F864E8F00582E9F0204B0387
:1018200002188290FA9BE030E00B90F830E0F80567
:1018300082E0F9804D90F82CE0FA0582E0FB12ADD1
:10184000B290F9D4E09060D3E493F5F0B5F0005095
:1018500009905F68E493F5F0801220590890F949E7
:10186000E0F5F080079060E4E493F5F012AD21908C
:10187000F882E025F090F882F0E438F8E439F912C3
:10188000ADAB90F82CE8F00582E9F090F830E0FA82
:101890000582E0FBEA5BB4FF028004A80AA90B9072
:1018A000F82EE8F00582E9F0906064E493FA906025
:1018B00065E493FB12ADB2E44018906066E493F5E2
:1018C000F012AD9F12AD0FE97006E8B4F0004002CF
:1018D00074F0FA90F9BCE0C39A12ADDB90F9BDF058
:1018E000EA90F9BCF054FEF5F00390F936F0E5F01B
:1018F000906BC893F8E5F00493F990F9A5E0601FA8
:1019000090F9BAE8F00582E9F0E490F83EF090F83A
:101910003DF090F840F090F83FF0C238021AB690CF
:101920008F4AE54E93FC908FE6E54E93FD90F9B813
:10193000E8F00582E9F090F89DE0046001F090F98C
:10194000BDE0F5F0905FAAE493B5F000400B78009D
:101950007900A26050210219FA90F9BAE0FA0582E2
:10196000E0FB12ADB2E8497007A260500A0219FA12
:10197000926050030219FA90F9A1E8F00582E9F0AB
:1019800090F9B8E0F80582E0F990F9BAE8F005823C
:10199000E9F03038048DF080028CF074FFC395F0CC
:1019A000F5F090F83FE0F80582E0F930382112AD0B
:1019B0003E12AD0F90F9A1E0FA0582E0FB12ADB244
:1019C0005002C23812AD3EE8497002C2388015128A
:1019D000AD0F90F9A1E0FA0582E0FB12ADAB500427
:1019E00079FF78FF90F83FE8F00582E9F03038059C
:1019F0008DF0021A768CF0021A7612AD3E90F9A1A3
:101A0000E8F00582E9F090F9B8E0F80582E0F99095
:101A1000F9BAE8F00582E9F03038048DF080028CE4
:101A2000F074FFC395F0F5F090F83FE0F80582E020
:101A3000F930381D12AD3E12AD0F90F9A1E0FA0554
:101A400082E0FB12ADAB50047900780012AD3E800D
:101A50001312AD0F90F9A1E0FA0582E0FB12ADB2CE
:101A60005002D23890F83FE8F00582E9F0303804AF
:101A70008DF080028CF030381112AD3E12AD0F9017
:101A8000F83DE8F00582E9F0800C12AD0F90F83DCA
:101A9000E8F00582E9F090F83FE0F80582E0F9E827
:101AA00049600AA238E913F9A2E0E813F890F9A313
:101AB000E8F00582E9F0304503021C5A3053030276
:101AC0001C5A90F98CE0F5F0907208E5F093FB90C9
:101AD00075EFAA5712AE49FA90F8B8E0F5F090F910
:101AE0008CE0C395F04003021B9E204539F424018D
:101AF000F5F0905F74E493B5F00050258AF090F80B
:101B0000ABE0C5F090F8ABF0C5F0C395F0601740BE
:101B100015F5F0905F73E493A4F8A9F012AD9380EB
:101B200018EA90F8ABF090F98DE0F80582E0F990B2
:101B30005F75E493F5F012AD0F90F98FE8F0058230
:101B4000E9F090F98DE0FA0582E0FB12ADB2400BAE
:101B500090F98FE0F80582E0F9801390F98DE0F8B4
:101B60000582E0F9905F76E493F5F012AD0F90F9FD
:101B70008DE8F00582E9F090F97BE0F80582E0F964
:101B800090F99FE0F5F012AD0F90F97BE8F0058237
:101B9000E9F090F97DE8F00582E9F0021C7B204530
:101BA00039F5F0906054E493B5F00050288AF09035
:101BB000F8ABE0C5F090F8ABF0C395F0601C401AAC
:101BC000F5F090F87EF0908393E54E93A4F8A9F099
:101BD00012AD8B8020EA90F8ABF090F944E020E061
:101BE0005290F97BE0F80582E0F990F99FE0F5F07A
:101BF00012AD0F803590F97DE8F00582E9F090F99B
:101C00007BE0FA0582E0FB12ADB2400B90F97DE07B
:101C1000F80582E0F9801390F97BE0F80582E0F99D
:101C2000905F6CE493F5F012AD0F90F97BE8F0054E
:101C300082E9F090F98DE0F80582E0F9905F76E4B2
:101C400093F5F012AD0F90F98DE8F00582E9F09070
:101C5000F98FE8F00582E9F08021E490F97BF090BB
:101C6000F97CF090F97DF090F97EF090F98DF0908C
:101C7000F98EF090F98FF090F990F090F98CE09057
:101C8000F8B8F090F82EE0F80582E0F9906064E48E
:101C900093FA906065E493FB12ADB2E44018906053
:101CA00066E493F5F012AD9F12AD0FE97006E8B44B
:101CB000F000400274F0F55C2404C423541FF55D69
:101CC000E55C240854F0F5F0C4F55EE557240854AB
:101CD000F0C425F0F55F90F82EE0F80582E0F920D9
:101CE0005603022325205503021E3C90F89EE00473
:101CF0006001F090F887E0FA90F888E0FB90710BB3
:101D000012AEBD7800F9908A99E54E9375F004847F
:101D1000F5F0907132E5F093F5F012AD0F90720886
:101D2000E55293240854F0C4907A7793F5F012ADFD
:101D30000F908C00E54E93F5F012AD0F90FF40E050
:101D4000F5F020E70612AD0F12AD5090F89BE8F0C9
:101D50000582E9F090F887E0FA90F888E0FB90714E
:101D60000B12AEBD7800F990F8AFE0F5F09071324B
:101D7000E5F093F5F012AD0F907208E55293240848
:101D800054F0C4907A7793F5F012AD0F90F89EE07E
:101D9000B43F004002743F908A5993F5F012AD0FA2
:101DA00090FF40E0F5F020E70612AD0F12AD503085
:101DB000516F906059E493F5F090F829E0C395F0E5
:101DC0004005E490F829F0906058E493F5F090F81D
:101DD00029E004F014C395F0504790F887E0FA909A
:101DE000F888E0FB90717912AEBD7800F990720826
:101DF000E55293240854F0C4907A7793F5F012AD2D
:101E00000F90F89EE0B43F004002743F908A5993CF
:101E1000F5F012AD0F90FF40E0F5F012AD0F12ADEE
:101E20005090F837E8F00582E9F090FF53E0A2E027
:101E3000B3820F82054002D250021F8F205B0E90AA
:101E4000605CE493F5F0E554C395F04019780079AF
:101E50000090F987E8F00582E9F090FF51E8F0057D
:101E600082E9F0022049E5612480F5F0E434007550
:101E7000E90088EA89EB75EC0085F0EDF5EE0000ED
:101E800000000000A8E9A9EAE5EBE5ECE5EDE5EEE8
:101E900090F97FE0F5F012AD0F12AD5090F837E8F1
:101EA000F00582E9F090F89BE0FA0582E0FB12ADC4
:101EB000B24002800990F837EAF00582EBF090FA20
:101EC000A320380390FAA4E0F5F090F836F090F8EB
:101ED0003DE0F80582E0F930383412AD0F12AD7AEA
:101EE00012AD5085090B85080A90F83BEAF005828F
:101EF000EBF0E490F839F090F83AF090F837E0F829
:101F00000582E0F912ADB25003E4F8F9802712AD72
:101F10000F12AD7A12AD5090F839E8F00582E9F071
:101F2000E490F83BF090F83CF090F837E0FA058246
:101F3000E0FB12ADAB90F97BE0FA0582E0FB12AD5D
:101F4000AB90F98DE0FA0582E0FB12ADB25005E4EA
:101F5000F8F9801F205B1C90F8B1E0601614F09037
:101F60007CD7E55D93F5F085080A85090B12AD0F66
:101F700012ADABE849600DA205200F028257400761
:101F8000D250800B02203690FF53E0A2E0925030F6
:101F9000500312AD8B85080A85090B856FF0B2F7E7
:101FA00012AD0FE56F30E70912ADAB500478FF7941
:101FB000FF85080A85090B854FF0B2F712AD0FE5D2
:101FC0004F30E70912ADAB500478FF79FF906057AE
:101FD000E493F5F012AD0F90FF51E8F00582E9F0BF
:101FE00085080E85090FAA57AB5C90A07112AE4907
:101FF000F50A90FAB1F054F803030390FAB2F090A6
:10200000A05112AE2190FAB3F0F5F0850E08850FBD
:102010000912AD0F90F987E8F00582E9F0E8496010
:1020200028AA507B0012ADAB30500B9060D9E493DE
:10203000FA7B0012ADABD3905FA8E493FA987401D9
:1020400093FB994004EAF8EBF990F841E8F0058237
:10205000E9F075F01012AD0F85F0E988EA89EB75AB
:10206000EC0075ED0C75EE00000000000000A8E922
:10207000A9EAE5EBE5ECE5EDE5EEE84970030221C0
:1020800051AB4130500DEBB2E1F5F0906100E5F05D
:1020900093F5F0906100EB93FBE57C54017028749C
:1020A00000B50B02800630501EB5F01B53F6FBC284
:1020B000AFC2EAF5C2D2AFE5C228FAE5C339F5D717
:1020C0008AD643F604D2EAE57C540270287401B53E
:1020D0000B02800630501EB5F01B53F6FDC2AFC296
:1020E000E9F5C2D2AFE5C228FAE5C339F5D58AD4FD
:1020F00043F602D2E9E57C540470287402B50B0261
:10210000800630501EB5F01B53F6FEC2AFC2E8F594
:10211000C2D2AFE5C228FAE5C339F5D38AD243F675
:1021200001D2E8E57C540870287403B50B028006E0
:1021300030501EB5F01B53F6F7C2AFC2EBF5C2D25A
:10214000AFE5C228FAE5C339F5E38AE243F608D2DF
:10215000EB90FF51E0F80582E0F99060D4E493F54C
:10216000F0E8C395F0FAE99400FB50047A007B0094
:1021700090FF54EAF00582EBF090F939E0F805821F
:10218000E0F912ADAB90F939E8F00582E9F0305092
:10219000067B067A50800C9060FEE493FA9060FF14
:1021A000E493FB12ADB2402A90F939E8F00582E9D8
:1021B000F053A6FD75C90FC2AFD2F9F5CED2AFE587
:1021C000CE2494FAE5CF3400F5A48AA375C99843C8
:1021D000A60220531C90F82EE0F80582E0F990F852
:1021E000F5E028F00582E039F00582E03400400196
:1021F000F0300E0C30450CE490F993F090F994F027
:1022000002232590F97BE0F80582E0F9E849701394
:10221000E490F993F090F994F090F87FE054FEF098
:1022200002228E90F87FE04401F030500312AD8B13
:1022300085080A85090B856FF0B2F712AD0FE56FBF
:1022400030E70912ADAB500478FF79FF906057E496
:1022500093F5F012AD0FAA507B0012ADAB90F9933D
:10226000E8F00582E9F075F01012AD0F85F0E9880D
:10227000EA89EB75EC0075ED0C75EE0000000000CE
:102280000000A8E9A9EAE5EBE5ECE5EDE5EEE849B3
:102290007003022325E57C5401701E30EA1B53F6BF
:1022A000FBC2AFC2EAF5C2D2AFE5C228FAE5C33934
:1022B000F5D78AD643F604D2EAE57C5402701E3084
:1022C000E91B53F6FDC2AFC2E9F5C2D2AFE5C228A1
:1022D000FAE5C339F5D58AD443F602D2E9E57C5450
:1022E00004701E30E81B53F6FEC2AFC2E8F5C2D23E
:1022F000AFE5C228FAE5C339F5D38AD243F601D255
:10230000E8E57C5408701E30EB1B53F6F7C2AFC2F1
:10231000EBF5C2D2AFE5C228FAE5C339F5E38AE2AC
:1023200043F608D2EBE490F944F0E543703F90F9AE
:102330003EE0F5F0A2E090FA71E0F80582E0F9E8FD
:102340003400F8E93400F9500478FF79FF90FA710D
:10235000E8F00582E9F0905FD8E493FA905FD9E461
:1023600093FB12ADB2E5F092E190F93EF090F8994E
:10237000E004F0D244759200D083D082D092D0F0A5
:10238000D0E0D0D032C2AFE5A930E60CE5616455AB
:1023900070030224240224D475A900758680D2AE6D
:1023A000D2BE75B1007581C275D0007590FF75B051
:1023B000FF75E8FF75F8BF75FAFF75F9A890F8C2C8
:1023C000E06455700C90F4C5E020E505D26B022462
:1023D000D412CD3A12CB5890F9BEE0645560061283
:1023E000CC0C12CAC7D268E490F4B7F0306A1990E6
:1023F000F9BEE0F5F06455600FE5F064AA7004EFF3
:1024000030E30312BC1AD268745F90F9A7F0744FDE
:1024100090F9A8F012B14BE4F522F523F524F52547
:1024200090F9BEF0C2F9E490F9C2F090F8C2E0640D
:1024300055601778ABE6B4A502800F90F9C2E0446E
:1024400002F0E490F4B9F012B43512C54212C5425C
:10245000E4F6F56175F00312A558F8C394DA404D1F
:10246000E8C394E7504775F00012A558F8C394AA42
:10247000403BE8C394B2503575F00412A558F8C338
:1024800094F24029E8C394FE502375F00112A55838
:10249000F8C394124017E8C3941E501175F002124D
:1024A000A558C39460400675615502E70012C34603
:1024B00012C36312C39D12C3D812C38012C42F1259
:1024C000C8C0ED6455700790F9C2E030E10312C650
:1024D000BD12D1947586E2D2AED2BEC2AF7581C2B2
:1024E00075B10075D00075C10075F60075C900534F
:1024F0002D1F782C7600D8FC782E760008E870FA2C
:1025000043B9807580FF43B98075901C43B98075CD
:10251000A00043B98075B03943B98075E80043B96C
:102520008075F82043B98075FAD043B98075F900F9
:1025300043B140E4F5D8F5DCF5DAF5D9F5EFF5C2AD
:10254000F5C3F5C4F5C5F5C6F5C7F5CEF5CFF5F677
:10255000F5D2F5D3F5D4F5D5F5D6F5D7F5E2F5E313
:10256000F5E4F5E5F5E6F5E7F5F2F5F3F5F4F5F55F
:10257000F5CAF5CBF587F599F59CF598F588F58AB8
:10258000F58CF58BF58DF5CCF5CD75B4D575891534
:10259000D28AD28875C88575BE0075E1C375BC4303
:1025A00075DF0075DE0043B11075DFFE75DE0C537C
:1025B000B1EF75F70075C14C75C900C2AAC2B9E583
:1025C000A95440600A90F9B0E064556002D21575D4
:1025D000B92C75A93412C1B990F8C2E0B455030200
:1025E000264390F9C2E020E1397801790090FD009E
:1025F000C3E028F8E93400F9A3E583B4FFF27A4098
:1026000090F4D2C3E028F8E93400F9A3DAF590F8A1
:10261000FEE0FA0582E0FB12ADB2E8496004D21692
:102620008002C21675F03490F900E4F0A3D5F0FBF7
:1026300090F800E4F0A3E58270F9E490F997F09047
:10264000F4B8F0E490F965F090F985F090F986F02F
:1026500090F98BF09060E6E49390F953F090609DD0
:10266000E49390F954F0905F50E49390F943F09024
:102670005F53E49390F946F0905F54E49390F947E8
:10268000F090F9557405F0A3F0A3F0A3F090F9C20F
:10269000E0A21672E1B015905F51E49390F934F026
:1026A00090F966F090F968F090F96AF090F96CF0A2
:1026B000E490F935F090F967F090F969F090F96BD2
:1026C000F090F96DF090F934E0F80582E0F990604F
:1026D000E7E493F5F012AD0FE9600678FF790F801B
:1026E0000A8801A8F012AD9F12AD8B90FA92E8F023
:1026F0000582E9F090F9D1E8F00582E9F0D2629024
:102700006051E493F520906052E493F521E4F5677D
:10271000F56690F828F090F9B0F090F9C3F090F9D0
:10272000CEF090F9CFF090F9D0F090F9C4F090F994
:10273000C5F090F9C6F090F9C7F090F9C8F090F99B
:10274000C9F090F9D5F090F9DCF090F4C9F090FA66
:102750008CF090F95BF090F95CF090FA8DF090F9C4
:102760009DF090F99EF090F97AF090F936F090F99A
:1027700044F090FA94F090FA96F090F9A0F090FA64
:1027800097F090F93CF090FA9BF090F94CF090F9AA
:1027900076F090FF46F090F9A0F090FAA5F090FA4C
:1027A000A6F090FF57F090F9A7E0D2E6F074FFF59D
:1027B0005A90F9CAF090F9CBF090FA81F0906061EC
:1027C000E49390FF47F0905FF8E493F53CF53E907A
:1027D0005FF9E493F53DF53F905F71E49390F9491B
:1027E000F0905F86E49390F893F090F895F0E49081
:1027F000F88FF090F97BF090F97CF090F97DF090F3
:10280000F97EF090F98DF090F98EF090F98FF090BC
:10281000F990F090F993F090F994F090F98CF09091
:10282000F99BF090F99CF090F9A3F090F9A4F09046
:10283000F9A1F090F9A2F090F9C0F090F9A6F0900B
:10284000F9D3F090F936F090F9D4F090F94AF0907D
:10285000F94BF090FF49F090FF4AF090FF4BF09059
:10286000FF4CF090FA0BF090FA1FF090F8CFF09038
:10287000FA79F090FA7AF090FA7BF090FA7CF09086
:10288000FA7DF090FA7EF090FA7FF090FA80F09066
:10289000FA78F090FA87F090FA88F090FA89F09040
:1028A000FA8AF090FA82F090FA83F090FA84F0902D
:1028B000FA85F090FA86F090FA82F090FAA1F09002
:1028C000FA10F090FA11F090FA12F090FA13F090DA
:1028D000FA14F090FA15F090FA16F090FA17F090BA
:1028E000FA0EF0E490FA71F090FA72F090FA73F048
:1028F00090FA75F090F93EF0748090F93DF078BE52
:1029000076B078BFE644FEF674FF90F830F00582AA
:10291000F0742090F843F074FF90F835F090606701
:10292000E49390F8B2F090F827F0756E009060A4F0
:10293000E493F56FD2707400F57790F806F0D258F2
:10294000D253D25490F9C2E0A215A0E1A0164007DC
:10295000D262E490F9BFF0D251C25F12ACAA90F9F2
:10296000C2E0A21572E17216501112A7CB748090CA
:10297000FF40F090F97FF090F9B7F0905F97E49303
:10298000F8905F98E493F990FF40E012ACD190FF8B
:1029900040F090F9C2E0A21572E172164008906012
:1029A000DEE49320E00F75F04090F4D2E4F0A3D57C
:1029B000F0FB12DB2712B426E490F4D8F090F5185F
:1029C000F075F02090FF40E090F8D0F0A3D5F0FB38
:1029D00090F4D6E0A2E7E492E090FF53F075F004A3
:1029E00012A55890F80BF0F9C42354E0FBE9030357
:1029F00003541FFA90610412AEBDC39414500274C4
:102A000000F54990F9C7F090609CE493F5F0E54932
:102A1000A42440500205F030F70474F0800CA2E7C3
:102A2000E5F033B4F000400274F090FF4DF0C45470
:102A30000F90FF4EF0E549240375F00584B424009F
:102A400040027424F54EE54975F00584B424004035
:102A500002742490F887F0E5F075F033A490F888BC
:102A6000F09060C5E493B54900B390F9A6E092E216
:102A7000F0740390F8B0F075F00112A558F5F090DD
:102A8000F827E0C5F0C395F04019F5F0906068E4D0
:102A900093A4A8F090606AE493C395F0500725F0E2
:102AA000F880027800E8F55290F98CF090F8B8F0D0
:102AB00075F00012A55890F80DF090F951F0F9E476
:102AC00090F950F09060BAE493F5F0E9B5F0004069
:102AD000119060BBE493F5F0E9B5F0005004894B28
:102AE00080079060BFE493F54B9060BCE493F5F0F1
:102AF000E54BC395F05001E4F5F09060BDE493A47C
:102B000030F70474FF800433E5F03390F978F090E7
:102B100071D812AF79F550E490F9B1F090F9B2F0B4
:102B200090F9B5F0740390F9B3F0A3742EF075F03A
:102B30000312A558F8C394284015E8C3943C500FDD
:102B4000E890F9B1F0905FA6E4932890F9B2F09084
:102B50008F71E54E9390F9A5F0908508E54E93901E
:102B6000F878F09087E4E54E93F560F56130016404
:102B7000D25E9060D1E493F5F0E549C395F0403F13
:102B800090F9C2E0A21572E1721650287592009079
:102B9000FD007592029076EFE493F5F0A375920034
:102BA000E025F00583F015830582E58275920270B9
:102BB000E77592009060CFE49390F868F0801590EC
:102BC000FD00E00583F01583D582F79060CEE49395
:102BD00090F868F043FA20754614C248758BCB759F
:102BE0008DFAD28ED2AED2BED2A8D2ABD2AA90F8F3
:102BF000C2E06455601830160612B43512B48E90D7
:102C0000F9C2E0A21672E1500512AC6D8014E549DC
:102C100090F80AF0906AA1E54E93F56490F9C1E04E
:102C2000F565E564F8790012AD7A90F845E8F005AD
:102C300082E9F0745590F8C2F012B13CD2BDD2AF27
:102C40003048FDC248D2AED2BEA2599261A25D9276
:102C5000637893E690F93CF0906051E493F520900E
:102C60006052E493F5219065D3E5589390F946F0CE
:102C70009065F3E5589390F947F090F946E0B41E5B
:102C8000004002741DF0C3940B5002241EF890F90A
:102C900047E0B41E004002741DF0C3940B500224A0
:102CA0001EFAC2AF8A72884CD2AF906088E493B5A6
:102CB00049004003E4802790F97BE0F80582E0F9C1
:102CC000905F8CE493F5F012AD0FE9600278FF900D
:102CD0005FABE493F5F0E8B5F0004002E5F090F961
:102CE00038F0103550E55A046006F55A90FA95F020
:102CF00020586BE55AB416004064D258C231E4F54E
:102D000053F554F555F557F558F538F53990F873EE
:102D1000F090F89EF090F94CF090F94AF090F94B51
:102D2000F090FF49F090FF4AF053F60F43E8F0436C
:102D3000F6F0022ECB305823E55AB40B00501C900D
:102D4000F873E0046001F090606FE493F5F090F8A0
:102D500073E0B5F0004004D231C258755A00C2AFDA
:102D6000AA1CAB1DD2AFEA4B7003022ECBC2447536
:102D7000E93075EA8275EB0075EC008AED8BEE00A8
:102D80000000000000A8E9A9EAAAEBABECE5EDE53C
:102D9000EE2044CAEA4B600478FF79FF90FF49E8CF
:102DA000F00582E9F0104603022ECBC2AFAA38AB81
:102DB00039D2AFEA4B7003022ECBC24475E940759D
:102DC000EA4275EB0F75EC008AED8BEE0000000017
:102DD0000000A8E9A9EAAAEBABECE5EDE5EE20449A
:102DE000CAEA4B600478FF79FF90F94AE0FA05825D
:102DF000E0FB90F94AE8F00582E9F012ADB2400E2E
:102E0000E96003E48011E830E70D747F8009B9FFC1
:102E1000F2E820E702748090F94CF0A2E790FF45B9
:102E2000E03390FF45F090F94AE0F80582E0F9E8D8
:102E30002401F5F0E9340040031360057553FF8069
:102E400005E5F013F553E82404F5F0E934004011EA
:102E500013C5F013C5F0C313C5F013C5F0C3136059
:102E60000474FF8003E5F013F5F095555001E490EC
:102E7000FA74F085F055E555B41F004002741F90B8
:102E8000F8AFF0E82403F8E93400F9401EC24488A2
:102E9000E989EA75ED0675EE0000000000AAE9ABCD
:102EA000EAE5EDE5EE2044E5EB60057554FF8002B0
:102EB0008A5490613CE55493F5572404C423541F6D
:102EC000F558E5572408C4540FF559305803022F1C
:102ED0002490F95BE0304904046001F0F5F0909C27
:102EE000C7E54E93B5F000500A90F9A7E0C2E6F0AE
:102EF000022F248553F0909CEEE54E93B5F00040F0
:102F000007E490F95CF0801C90F95CE0046001F04B
:102F1000F5F0909D15E54E93B5F000500790F9A798
:102F2000E0C2E6F0907208E55293240854F0F5F000
:102F3000C490F979F0E5F02559FA907AC7EA93F54B
:102F4000F0A2F4B062923790F933F0540F90F93256
:102F5000F0A21D7225500CAB5CAA5790681312AEFC
:102F600049800F907208E55293FBAA57907CF712A4
:102F7000AE4990F945F090FAA2E004F0F5F0AA57B6
:102F800090F87DE0FB20F00590736D800390852F15
:102F900012AE49F5F090F89DE0F97800E5F012AC3A
:102FA000D1FA90FAA2E020E007EA90FAA4F08005B6
:102FB000EA90FAA3F0909822E493B5550040077583
:102FC000F00074008041740193B55500400775F01E
:102FD0000174028032740293B55500400775F00207
:102FE00074048023740393B55500400775F004748E
:102FF000068014740493B55500400775F0087408F2
:103000008005740A75F01090F940F0E5F090F941F0
:10301000F0540F601890F942E030E01130E10E30CA
:10302000E20B30E30890F93EE0D2E0800690F93EF2
:10303000E0C2E0F0909694E5589390F94EF09096A7
:10304000B4E5589390F94FF090F942E0F5F020E0A4
:103050000B90F94FE090F94DF00230A890F941E063
:10306000541F7004E40230A830E004E40230A830B9
:10307000E10E30F104E40230A890F94EE00230A8ED
:1030800030E20C30F203E4801F90F94EE0801930FA
:10309000E30C30F303E4801090F94EE0800A30F343
:1030A00003E4800490F94EE090F94DF090F942E08D
:1030B00020E026E490FA69F090FA6BF090FA6DF057
:1030C00090FA6FF0748090FA6AF090FA6CF090FACF
:1030D0006EF090FA70F002321790FA59E0F805821B
:1030E000E0F990FA69E8F00582E9F090F942E03001
:1030F000E14B90FA5BE0F80582E0F990FA59E0FACA
:103100000582E0FB12ADB212ADE19060FCE493FAEF
:103110009060FDE493FB12ADB290FA5BE0F805829B
:10312000E0F9402290F942E0C2E1F0905FD0E493F0
:1031300090FA63F0905FD1E49390FA64F090FA59BA
:10314000E0F80582E0F990FA6BE8F00582E9F0908A
:10315000F942E030E24B90FA5DE0F80582E0F99048
:10316000FA59E0FA0582E0FB12ADB212ADE19060CF
:10317000FCE493FA9060FDE493FB12ADB290FA5D2B
:10318000E0F80582E0F9402290F942E0C2E2F090D6
:103190005FD0E49390FA65F0905FD1E49390FA6683
:1031A000F090FA59E0F80582E0F990FA6DE8F00540
:1031B00082E9F090F942E030E34B90FA5FE0F805E5
:1031C00082E0F990FA59E0FA0582E0FB12ADB21202
:1031D000ADE19060FCE493FA9060FDE493FB12ADE6
:1031E000B290FA5FE0F80582E0F9402290F942E0FF
:1031F000C2E3F0905FD0E49390FA67F0905FD1E47F
:103200009390FA68F090FA59E0F80582E0F990FAA4
:103210006FE8F00582E9F0E555B480004002747F64
:103220009098279390F93FF0C4540FF5F090FA6905
:103230002582F582E0FA0582E0FB0582E0F805824E
:10324000E0F912ADB2500302327790F93FE0C45476
:10325000F0F5E988ED75EA0089EE00000000E5E987
:10326000A8EAA9EB85ECF02480E83400F8E9340002
:10327000F912ADAB0232A712AD3E90F93FE0C45453
:10328000F0F5E988ED75EA0089EE00000000E5E957
:10329000A8EAA9EB85ECF02480E83400F8E93400D2
:1032A000F912ADB212AD3E905FEAE493FA905FEB93
:1032B000E493FB12ACF7905FECE493FA905FEDE4DB
:1032C00093FB12AD0390FA2DE8F00582E9F090F936
:1032D0003DE0FC905FD2E493B55500EC92E0FC90A9
:1032E0005FD3E493B55500B3EC92E1FC905FD6E474
:1032F00093F5F090F9BDE0B5F000EC92E2FC905F40
:10330000D5E493F5F090FA74E0B5F000EC92E3FCAC
:10331000909BA7E55893F5F090F82EE0F80582E031
:10332000F912AD9FE9600278FFE8B5F000B3EC92C6
:10333000E4A25BB392E5FC905FD7E493F5F090F9DB
:10334000D4E0B5F000B3EC92E6FC547FB47F1E905D
:10335000FA75E004700114F0F5F0EC30E71B905FB3
:10336000DBE493B5F0005011ECC2E78008E490FA7A
:1033700075F0ECD2E790F93DF090FAA0E0FC905F98
:1033800094E493B54900EC92E0FC905F95E493B52A
:103390004900B3EC92E1FC905FFCE493B55C00EC77
:1033A00092E2FC90F8AEE0B40100EC92E3FCA25B88
:1033B000B392E4FC90F93DE0A2E1EC92E5543FB415
:1033C0003F00B392E790FAA0F0AA57AB5C909BC77E
:1033D00012AE4990F8CEF030560890FAA1E05404AD
:1033E000600302363890FA82E0F5F0540160028002
:1033F00003023590E5F054FEF090FA83E0F8058280
:10340000E0F912AD93E890FA85F0E9A3F090FA8321
:10341000E0F80582E0F9905FDCE493FAE4A393FB23
:1034200012ADB2400B90FAA1E04402F0C25C803AC7
:1034300090FAA1E054FDF0D25C90FA87E0600214AB
:10344000F090FA88E0600214F090FA89E0600214CB
:10345000F090FA8AE0600214F090FA82E0541FF0D3
:1034600090FAA1E054FEF002353990FA79E0F805BF
:1034700082E0F9905FDEE493FAE4A393FB12ADB22D
:10348000400890FA87E0046001F090FA7BE0F805CC
:1034900082E0F912ADB2400890FA88E0046001F0D1
:1034A00090FA7DE0F80582E0F912ADB2400890FA9A
:1034B00089E0046001F090FA7FE0F80582E0F912FB
:1034C000ADB2400890FA8AE0046001F090FA85E01D
:1034D000FA0582E0FB90FA79E0F80582E0F912AD96
:1034E000B290FA82E040044420800254DFF090FA67
:1034F0007BE0F80582E0F912ADB290FA82E0400478
:103500004440800254BFF090FA7DE0F80582E0F973
:1035100012ADB290FA82E0400444808002547FF001
:1035200090FA7FE0F80582E0F912ADB290FAA1E0DE
:1035300040044401800254FEF0905FE0E493F5F013
:1035400090FA87E0B5F00090FA82E04004440280EF
:103550000254FDF090FA88E0B5F00090FA82E04065
:10356000044404800254FBF090FA89E0B5F0009026
:10357000FA82E040044408800254F7F090FA8AE0AE
:10358000B5F00090FA82E040044410800254EFF05D
:1035900090FA82E0035470F5F090FAA1E0A2E09274
:1035A000F7E5F0602290F9C2E04480F090F9C6E0BF
:1035B00045F030501FA2F472F650024450A2F5724A
:1035C000F7501144A0800D90F9C2E0547FF090F9BB
:1035D000C6E0540FF090FA82E003540FC455F0F5A2
:1035E000F090FAA1E0540F45F0F5F0601730501458
:1035F000335002D2F5335002D2F4335002D2F733B3
:103600005002D2F690FAA1E0540F45F0F0C4540FE6
:1036100075F000135002D2F0135002D2F213500290
:10362000D2F3135002D2F1E57C45F0F57CE5F06071
:103630000790FAA1E04404F075F00912A55890FA39
:1036400099F075F00412A55890F80BF090F8131249
:10365000AF4775F00812A55890F80EF090F81912BF
:10366000AF4775F00012A55890F80DF0F89060CAB9
:10367000E493B50000401E204C35905FF1E493F5D3
:10368000F090FA8DE004F0B5F0004023D24CE490C5
:10369000F87CF0801A304C1090F9A7E0D2E6F0E404
:1036A00090F95BF090F95CF0C24CE490FA8DF090E8
:1036B0005F6EE493F404F5F090F950E0F80582E0D1
:1036C000F912AD0F905F6EE493F5F090F80DE0A461
:1036D000FAABF012ADAB90F950E8F00582E9F0904A
:1036E00060BAE493F5F0E9B5F000401A9060BBE4ED
:1036F00093F5F0E9B5F0005030C218C220E490F91B
:10370000C3F0894B805F204C3E20183B905FAFE4B4
:1037100093F5F090F9C3E004F0B5F0004029D21819
:10372000C220E490F9C3F0801E20201B905FAFE41C
:1037300093F5F090F9C3E004F0B5F0004009C21829
:10374000D220E490F9C3F09060BEE493F5F0E55523
:10375000B5F00050099060BFE493F54B800790608E
:10376000C0E493F54B9060BCE493F5F0E54BC39552
:10377000F05001E4F5F09060BDE493A430F70474D8
:10378000FF800433E5F03390F978F09071D812AFF0
:1037900079F55090F850F075F00112A55890F8A9FD
:1037A000F090F81D12AF4790F812E0700CE5F09021
:1037B000F825F090F826F0802090F825E0C395F0E9
:1037C0004008E5F090F825F0800F90F826E0C395CA
:1037D000F05006E5F090F826F090F812E004F0B40E
:1037E0002004E4F08003023A41E57A548060030249
:1037F000389D90F813E0F80582E0F912AD6CE824EA
:1038000080E93400F99060B5E493F5F090F873E046
:10381000B5F000401A9060B1E493F5F0E9B5F0001E
:1038200040609060B2E493F5F0E9B5F0005059E9DA
:10383000C42354E0FBE9030303541FFA906104120C
:10384000AEBDC3941450027400F54990F9C8F0C29B
:103850001BC223F5F090F9C9E07042905FB6E49383
:10386000B5F000503890F9C7E0C5F0C395F0F5F019
:10387000905FB5E493B5F0005023740190F9C9F05E
:10388000801BD21BC2238004C21BD22390F8ACE061
:1038900054F0C4F5F0907DF7E5F093F549E549243F
:1038A0000275F00584B4240040027424F54E906043
:1038B0009CE493F5F0E549A42440500205F030F76C
:1038C0000474F0800CA2E7E5F033B4F00040027419
:1038D000F090F87DF0C4540F90F880F0E54975F051
:1038E0000584B424004002742490F887F0E5F07554
:1038F000F033A490F888F0740390F8B0F030047DB1
:10390000E57B5401705A90F819E0F80582E0F9124D
:10391000AD6C9060B8E493F5F090F8ACE0B5F000D1
:10392000401A9060B6E493F5F0E9B5F000401E90BF
:1039300060B7E493F5F0E9B5F0005017E99061261F
:1039400012AF5490F93BF0C21AC2228013D21AC2AD
:10395000228004C21AD2229060B9E49390F93BF01D
:1039600090F93BE075F00584B42400400274249083
:10397000F931F0E5F075F033A490F8F1F090F82506
:10398000E0F5F090F826E0C395F0F5F0906069E47A
:1039900093C395F0402990F81DE0F80582E0F912F4
:1039A000AD6CE82480E93400F990F8B2E0C39940A6
:1039B0000E600CE90490F827F090F8B2F080203007
:1039C000091D90F805E07017906067E493F5F0909A
:1039D000F8B2E0C395F0500725F00490F8B2F090EB
:1039E000606BE493F5F0E9C395F0401C90606CE4E3
:1039F00093F5F0E9C395F0502AC21DC225E490F971
:103A000095F090F996F0803490F995E0046001F01B
:103A1000E0F5F0905FF2E493B5F000501FD21DC2C4
:103A200025801990F996E0046001F0E0F5F0905FD0
:103A3000F2E493B5F0005004C21DD22512BA8ED222
:103A40004B30536D20366A20166790F9C2E020E1B2
:103A500060306B5D90F4E0E0705790F4E8E07051F6
:103A600090F9B1E0604B90F9B3E0FAA3E0F975F09A
:103A70000312A558FB90F9B1E0CB12B7D2FB90F935
:103A8000B1F0EA90F9B3F0A3E9F090F9B2E0C39B8A
:103A9000501F90F9B5E004F0FB905FA7E493C39B3F
:103AA000501490F9C2E0A2934004D2E38002D2E223
:103AB000F0E490F9B5F075F00212EBB890FAA8F0C6
:103AC000F5F090F811E0C395F075F080400DA42456
:103AD00080E5F03400F404F5F0800BF404A42480B5
:103AE000E5F03400F5F090F811E025F0F890F811C9
:103AF000F075F004A490F964F0204F13905FE7E4B0
:103B000093F5F020671A905FE8E493F5F080119048
:103B1000609EE493F5F020670790609FE493F5F0D2
:103B2000E8C395F0B39267200003023C9A205B51F2
:103B30009060D5E493C3984048201C4230493F90A0
:103B4000F810E020E20330E117305C3590F8C3E074
:103B5000F5F004F0905F90E493B5F00050208015EC
:103B600030561B90F8C3E0F5F004F0905FA1E493A9
:103B7000B5F0005009D21C90F810E054FEF0023C61
:103B80009A9060D6E493C398504820244230493F2D
:103B900090F810E020E20330E117305C3590F8C374
:103BA000E0F5F004F0905F90E493B5F000502080D1
:103BB0001530561B90F8C3E0F5F004F0905FA2E4D6
:103BC00093B5F0005009D22490F810E054FEF002B2
:103BD0003C9AC21CC224E490F8C3F090F810E02094
:103BE000E21F30E11C304919905F92E493F5F090A8
:103BF000F8C5E004F0B5F000400790F810E0440488
:103C0000F030530CE490F810F090F8C5F0023CB19D
:103C1000905F81E493C39892F0905F82E493C3989D
:103C2000A0F0B3500C90F810E0C2E7F020E03B8029
:103C30002B90F810E0D2E7F0E490F8C4F0905F83A6
:103C4000E493F5F090F803E0046001F0B5F0004073
:103C500049C22B90F810E04401F0803EE490F80354
:103C6000F090F810E054FEF0803090F810E030E270
:103C700024305C2120621E304F1B30491D905F9123
:103C8000E493F5F090F8C4E0046001F0B5F0004072
:103C900009D22B80C7E490F8C4F0206214905F969C
:103CA000E493B5490090F810E082E2B0E05002D20F
:103CB0002BA21D7225406190F8A9E0F990606BE499
:103CC00093F5F0E9C395F0405C90606CE493F5F0F7
:103CD000E9C395F0504F90F827E0C9C3994019F512
:103CE000F0906068E493A4A8F090606AE493C395B0
:103CF000F0500725F0F88002780090606DE493F5AD
:103D0000F090F824E0C39812ADDBC395F050028820
:103D100052E890F824F08021906067E49390F827AF
:103D2000F090F8B2F020540E909D3CAA57AB5C1274
:103D3000AE49F5528003755200A21D7225721E72A3
:103D400026403130490990F843E024014001F0AAAF
:103D500057907208E55293FB9075EF12AE49FB90B5
:103D60007208E55293FC240854F02559FA9062AC8D
:103D7000EA93700A90FA9BE0C2E0F0023FAB20E7C2
:103D80000CF5F090FA9BE0C2E0F0023E5DE490F8A2
:103D90002AF0906076E493C31390F896F0E490F8DC
:103DA00097F075F007EAC3941040099062AC932035
:103DB000E702C2F0EAC42410400AC49062AC932027
:103DC000E702C2F1EAC394104010EAC42410400A8A
:103DD000C49062AC9320E7078010E5F0B4070B9025
:103DE000FA9BE0D2E0F07CFF8032ECC39408540FE1
:103DF000F87407C39557540FF9E9C398500530F18B
:103E000005800630F003E98001E8F5F090FA9BE0C8
:103E1000C2E0F0E5F0C4FC7003023FC08BF090FFFD
:103E200040E0A4F8A9F09063ACE54E93F5F012AD34
:103E30000F12AD93EC04602214F5F012AD0FAA003E
:103E4000AB01C2AF90F82CE0F80582E0F9D2AFECFC
:103E5000F404F5F012AD0F12ADAB023FC4E5F0B4BF
:103E6000200040027420FC905F96E493B549004026
:103E700003023FAB90F88DE0C39C6008EC90F88D96
:103E8000F0023FAB8BF0C2AF90F82CE0F80582E077
:103E9000F9D2AF12AD5E9063ACE54E93A4C2447507
:103EA000E90075EA0088EB89ECF5ED85F0EE00009D
:103EB00000000000E5E9AAEAABEBABECABEDABEE42
:103EC0002044D330E7010A90F896E0F80582E0F943
:103ED000E82AF8E93400F990F896E8F00582E9F06C
:103EE00090F82AE0700BEA90F88AF090F88BF08056
:103EF0003890F88AE0C39A4007EA90F88AF0800D7B
:103F000090F88BE0C39A5005EA90F88BF090F88A0D
:103F1000E0F5F090F88BE0C395F0F5F09060E1E407
:103F200093C395F05003023FAB906076E493F5F0B5
:103F300090F82AE004F0B5F0028003023FC0C244CA
:103F400088E989EA85F0ED75EE0000000000AAE935
:103F5000E5EAE5EBE5EC2044E590F8D0EC142582A9
:103F6000F582E5833400F583EAF090F843E0B40A83
:103F7000004038E4F07810790075F02090F8D0E037
:103F800028F8E93400F9A3D5F0F512AD6C905F97ED
:103F9000E493F8905F98E493C912ACD190FF40F09D
:103FA00075F02090F8D0F0A3D5F0FBE490F82AF05B
:103FB000906076E493C31390F896F0E490F897F04D
:103FC00078FF79FFC2AF90F830E8F00582E9F0D2CF
:103FD000AFC249C24A90F898E004F090F804E004B7
:103FE000F0B43252E4F0304F0312B7EED249205809
:103FF0000890F8ACE0046001F090F965E00460011D
:10400000F0306E23905F88E493F5F090F84FE0C3B2
:1040100095F05001E4F5F0905F58E493B5F000504E
:1040200002E5F090F84FF090F805E004F0B43C069B
:10403000E4F0D24AC21530490890F807E004600164
:10404000F030490B20530890F9D4E0046001F020CF
:104050004D6D204C1E801212BA8EE490F812F09032
:10406000F807F090F9D4F0D262E490F87CF0C24DF9
:104070000242109060AAE493F5F090F87CE004F01E
:10408000C395F0402312B3B1905FE6E49390FA8BAE
:10409000F0E490F87CF0D24D90F9A7E0C2E4F01281
:1040A000B14B12ABCB53FADF9060CAE493F50075C5
:1040B000F00012A558B500004002804902421020CD
:1040C0004C0280E490FA8BE0146003F080DA90F404
:1040D0007DE0540870D290F4B7E0640260279060ED
:1040E000C9E493F5F090F87CE004F0C395F040B893
:1040F00090F47DE04408F0752F00D26812C1B91227
:10410000CC92024210C2AF90F9D4E0600C90F9BF9B
:10411000E0A24F92E090F9BFF0758680D2AED2BE99
:1041200012B4267801790090FD00C3E028F8E93444
:1041300000F9A3E583B4FFF27A4090F4D2C3E028FB
:10414000F8E93400F9A3DAF590F8FEE8F00582E921
:10415000F09060CAE493F50075F00012A558B50020
:1041600000400302238575C10075C900745512C94A
:104170002990FA5912C99C12C94212C95F75B1003F
:10418000306A0DC04E12BC1AD04E745590F9BEF074
:104190007FFF12CC33306A0612CAED12CB2F12CC3D
:1041A0006712CBF074AA90F9BEF0E490F804F09096
:1041B000F87CF07B697C00DCFEDBFCD2AED2BE90EA
:1041C00060CAE493F50075F00012A558B5000040F0
:1041D0000302238590F804E004F0B432D6E4F090B2
:1041E000A2B1E54E93F5F090F87CE0046001F0C3D5
:1041F00095F040BF90F9A8E0C2E6F012B14BE49010
:10420000F8C2F078AB76A543F901D2AED2BE80FAFF
:1042100090F878E0F5F090F9D4E0B5F00090F9A6C8
:10422000E0B0E192E090F9A6F04003E4801F90F83E
:1042300087E0FA90F888E0FB9084E112AEBDF5F0DB
:104240009083BAE55F93A42480E5F0340090F8767B
:10425000F08549F09060C6E493B5F0005005E49015
:10426000F9A6F090F887E0FA90F888E0FB906EC825
:1042700012AEBDF5F090F931E09084BA9325F0903C
:10428000F802F0204D6820565F305859E57C540FF5
:1042900053F6F0700343E80F90F9A8E0C2E4C2E5DA
:1042A000F0C24E90F810E054FDF0E5795408600635
:1042B000A273501A802290606EE493F5F090F82873
:1042C000E030490404700114F0C395F0400A90F9FD
:1042D000A7E0C2E3F002436D306B0790F9A7E0D28C
:1042E000E3F002436D0243C72058030244BEC256A6
:1042F000C23153F9BFD253D254D251E490F810F0E6
:1043000090F8C5F0E57A54027009906061E49390EA
:10431000FF47F0906070E49390F82CF0906071E4A7
:104320009390F82DF0204C08906AA1E54E93F56427
:10433000E490F84AF090F89EF0F55390F841F09030
:10434000F842F090F837F090F838F090F89BF09041
:10435000F89CF090F82EF090F82FF090F808F0907C
:10436000F809F090F89DF012AC9612ACAAE54990CD
:10437000F80AF0E57A5404700E90F8AFE0F5F0908A
:1043800071A0E5F093F5627880203E0C86100886D7
:1043900011088612088613088614088615088616E2
:1043A000088617303E0C0886100886110886120809
:1043B0008613908C27E54E9390F89AF0025076E49D
:1043C00090F872F00244AFE5795408D3600DA273FF
:1043D000400990F9A7E0C2E3F0800A306B0790F93A
:1043E000A7E0D2E3F090F872E070D92018D190F8ED
:1043F00087E0FA90F888E0FB90715212AEBDF5F0BC
:1044000090F997E030E007908C4EE54E93A49072BF
:1044100008E55293240854F0C4907A7793A4E5F009
:1044200090F872F06099F97800FB7A00856FF0B22D
:10443000F712AD0FE56F30E70912ADAB500478FF0E
:1044400079FF906057E493F5F012AD0FAA507B000E
:1044500012ADAB75F01012AD0FC24485F0E988EAD9
:1044600089EB75EC0075ED0C75EE000000000000A6
:1044700000AAE9ABEAE5EBE5ECE5EDE5EE2044D991
:1044800053F6F0C2AFE57C540F700353E8F0F5C269
:10449000D2AFE5C22AFAE5C33BF5D3F5D5F5D7F59A
:1044A000E38AD28AD48AD68AE243F60F43E80F2001
:1044B0000A0790F997E0D2E0F0E490F829F0305341
:1044C0002A908A99E54E93F5F0E553C395F050177D
:1044D00090605AE493F5F0E553C395F0925140197A
:1044E000E490F872F08012C253C25130490890F93A
:1044F000A5E0600214F0024539E57A5404700E908C
:10450000F8AFE0F5F09071A0E5F093F562E57A542C
:10451000207008906AA1E54E93F56412AC9612AC37
:10452000AA90F872E0600BE5E8F4540F700890F878
:1045300072F0D255D256024FE4E57D54046003C3B5
:104540008018907208E55293240854F02559FA9087
:1045500063D3EA93A25D82E172E0925D30591290DA
:10456000F887E0FA90F888E0FB9087E412AEBD800F
:104570000A12ECF180050000000000F560E57A54B5
:1045800004700C12ED01F56280050000000000E5EA
:104590007A5402700A9064D3E55F9390FF47F0AAC3
:1045A00057907208E55293FB907E0712AE49FA903D
:1045B0007BC7E55454FEF5F093F8E5F00493F98ACF
:1045C000F012AD5012AD0F90F8BAE8F00582E9F0A4
:1045D00090F934E0F80582E0F9908F2AE55893F5D8
:1045E000F012AD0FE9600678FF790F800B850001AE
:1045F000A8F012AD9F12AD8B90FA92E8F00582E917
:10460000F012AD8B90F9D1E8F00582E9F0907F07C8
:10461000E5589390F943F0907F27E5589390F9532C
:10462000F0907F47E5589390F954F0AA579072089C
:10463000E55293FB908C7512AE49FC90F931E0FA8B
:1046400090F8F1E0FB90900D12AEBDC39480500C39
:10465000F4048CF0A47480C395F080098CF0A42439
:1046600080E5F0348090F8F0F090F87DE0FA90FF6B
:104670004DE0FB90671312AE4990FF4FF0AA57AB85
:104680005C90819312AE49FC90FF4FE0C394805040
:104690000CF4048CF0A47480C395F080098CF0A411
:1046A0002480E5F03480F5F090F8F0E0A424405048
:1046B0000205F030F70474FF8005A2E7E5F03390BF
:1046C000F9B7F090F9A6E0A2E040047480801730BA
:1046D000590E90F9D4E0F5F0909194E5F0938006AE
:1046E000908FBFE54E93F5F090F9B7E0A4244050C9
:1046F0000205F030F70474FF8005A2E7E5F033907F
:10470000F97FF0A21E7226721D7225507412ED11EF
:1047100080380000000000000000000000000000E1
:104720000000000000000000000000000000000089
:104730000000000000000000000000000000000079
:1047400000000000000000000000E57A542070081E
:10475000906F0FE54E93F564305411908A99E54EB1
:1047600093F5F0E553C395F04002C25430591590CB
:104770008AE0E55893F5F0E552C395F040180248F9
:1047800049024857908AC0E55893F5F0E552C39521
:10479000F04003024849D259E57A54047013906FEF
:1047A0009DE54E93F5F0906F7DE55893C395F0F538
:1047B00063906F56E54E9390F849F0C395534007C8
:1047C00030E709747F800520E7027480F56DE57A93
:1047D00054047056906095E493F5F0E56DF812ADD1
:1047E000DBC395F05002780012ADBA75F00812AD37
:1047F00021E8A8F0F9E920E709906093E493F5F047
:104800008007906094E493F5F012AD2112ADC4F5E9
:10481000F0906096E493F8906097E493F9E5F012D5
:10482000ACE2F5F0E56325F0F5629060E9E493F51C
:10483000F0205B079060EAE493F5F0E554B5F000F2
:10484000B3925B305B05025076C259A21D722550AF
:1048500003024EB5024F5C205345204F4290F80AA8
:10486000E0F5F0905F7EE493B5F0005004D24F8005
:104870002E905F7DE493B5F000500E90F9BFE030CC
:10488000E007905F7FE4938005905F80E49390F869
:10489000F2F0F5F090F8F7E0B5F0004002D24F30BA
:1048A0000033205830905F89E493F5F090F80DE0E4
:1048B000B5F0005020905F8AE493B549005016206F
:1048C0004F03024902905F87E493F5F090F895E07A
:1048D000B5F000401590F9A8E0C2E4C2E5F0C24E80
:1048E00090F810E054FDF002497920130990F9A8DE
:1048F000E0D2E4D2E5F0D24E90F810E04402F002AB
:10490000497990F810E020E005202B0280DC90F936
:1049100078E0F5F0C4540FFAE5F0540FC4FB907F33
:104920008E12AEBDF5F090F963F060BE304E269069
:10493000F8F3E004F0F5F0905F93E493C5F0B5F080
:1049400000403690F9A8E0C2E4C2E5F0C24EE4901F
:10495000F8F4F0802490F8F4E0046001F090F8F4AA
:10496000E0B5F000401320130990F9A8E0D2E4D29A
:10497000E5F0D24EE490F8F3F0E57A5440701E90E2
:10498000F887E0FA90F888E0FB906F5612AEBDF51C
:10499000F090F84FE025F0500874FF800490F8493B
:1049A000E0F5F090F9A6E030E00C90F9D4E0F89052
:1049B0009094E893800D30E21290F9D4E0F890A141
:1049C000B1E89325F0500274FFF5F0A8F0206E07CF
:1049D000906086E4938005905F57E493A4E825F007
:1049E000500274FF90F847F0F5F0906087E493A4CC
:1049F00090F847E025F0500274FF90F848F075F009
:104A000000E57A54407011300C06202E03306D08FA
:104A100090756DE54E93F5F0E825F0500520F7020E
:104A200074FF90F849F0906F9DE54E93F5F0906F0C
:104A30007DE55893C395F0F990F9A6E020E003E4F2
:104A4000800C90F9D4E0F5F0909294E5F09329F57C
:104A50006330592E908AE0E55893F5F0E552C395FE
:104A6000F04009740190F97AF0024AD720620D9063
:104A7000F848E0F5F0E553C395F05003024BEE0221
:104A80004BFDE56B602C908AE0E55893F5F0E5521C
:104A9000C395F0504290F847E0F5F0E553C395F028
:104AA0005003024B9CE56BC394025003024C050279
:104AB0004CAB908AC0E55893F5F0E552C395F040B1
:104AC00003024B3D2062DB90F848E0F5F0E553C36C
:104AD00095F040CE024BFDE56B0490F97AF090FA28
:104AE00094E0D2E0F0E490FA96F090FF46F0C259DC
:104AF000756B00C22FE490F986F090F97AE0F5F03A
:104B0000909054E5F093F5F0908796E54E93A4F8D5
:104B1000A9F012AD9F90F97BE8F00582E9F090F9D9
:104B200044E0D2E0F0905FACE493F5F090F807E059
:104B3000B5F00090F9A6E092E190F9A6F090FA9411
:104B4000E020E007905F6BE493800C90F97AE0F549
:104B5000F0909074E5F09390F99FF090FA94E02033
:104B6000E007E490FA96F0801B90FA96E00460016A
:104B7000F0F5F0905FF6E493B5F000500790FA94EA
:104B8000E0D2E1F09060D8E493F5F090F9D4E0B58C
:104B9000F0004002C26212B985024D72756B00D2FC
:104BA0005910543590F849E0F5F0E55390F84AF083
:104BB000C395F0500A90F849E090F84AF0802F3001
:104BC000622C90F847E0F5F0E553B5F000401F90F7
:104BD000F847E090F84AF0801590608FE493F5F084
:104BE00090F849E025F0500274FF90F84AF012BAAC
:104BF0009A12A7D712AA9412BA27024D7D756B019B
:104C0000C259756C0012BA9AE57A5404702890F86B
:104C100044E02480F5F0E5632480B5F00585636207
:104C20008014500AE5F014C39480F5628008E5F022
:104C300004C39480F56220065490608AE493F5F0F2
:104C4000E549C395F04046905F77E493F5F090F81E
:104C500094E0C395F04012906050E493F5F090F822
:104C6000AEE0C395F0400280249060EAE493F5F052
:104C7000E554C395F0501C300C19202E1690607B23
:104C8000E493F5F090F8AEE0C395F0500612B985C4
:104C9000024D7290608DE493F5F0056CE56CC39560
:104CA000F040EA756B02C259756C0012B9DDAA6A50
:104CB000E57A5420700312ADF0E57A540470038550
:104CC0006362E56BB402028003B4041290608EE468
:104CD00093F5F0056CE56CC395F04010056BE57A33
:104CE00054047008906FC4E55893F562300C60204E
:104CF0002E5DE56BB402028003B4032990607BE46F
:104D000093F5F090F8AEE0C395F050439060E9E47D
:104D100093F5F0E554C395F05035E56B2402F56B3F
:104D200012B985804D90607BE493F5F090F8AEE089
:104D3000C395F050139060EAE493F5F0E554C39501
:104D4000F0500512B985802AE56BC39402F56BC259
:104D50005C12BA9A12B0D3D25BC255D25690FF53AE
:104D6000E0A21492E0F012AC96740490F8B1F00254
:104D70005076AA6AE57A5420700312ADF0300175BE
:104D8000E57B5404706F9060D1E493F5F0E549C37E
:104D900095F04061304A0B90F868E060051490F897
:104DA00068F090F868E0300003205F49305E3770AB
:104DB0001DE57B540470087400F57790F806F090B8
:104DC00060D0E49390F868F0C25EC25C8027E57B17
:104DD0005404701090746DAA57AB5C12AE49F5770D
:104DE00090F806F0800F700D9060CFE49390F86813
:104DF000F0C25CD25EA21E7226721D7225500EE5B4
:104E00007B540470087400F57790F806F0200003D6
:104E1000024EAF9060A3E493F5F0E549C395F040EE
:104E2000EF905FA5E493F5F0E549C395F050E1906C
:104E300060A0E493F5F090F80AE0C395F050099073
:104E400060A1E493F5F080079060A2E493F5F09000
:104E5000F807E0C395F0405790F810E030E050902C
:104E600063D3E55F9330E247A21C7224722C722D4B
:104E7000722B90F9C2E072E7A04F403375608080DA
:104E8000170000000000000000000000000000000B
:104E9000000000000000000020590612ECE4205A37
:104EA00014E57D54026002C25C12A569024F5C20C9
:104EB000590312ECE4305903024F5A90607DE49399
:104EC000906A5393F5F0E560C395F05001E4F990D2
:104ED000F887E0FA90F888E0FB906A7A12AEBD8914
:104EE000F0A4A9F090F887E0FA90F888E0FB906AC7
:104EF0005312AEBD29F560205D03E4802978ACE64D
:104F0000F5F008E6B5F0004002F5F008E6B5F0006F
:104F10004002F5F008E6B5F0004002F5F0E5F0B427
:104F20001F004002741F90FF50F090A31893F5F0FB
:104F3000E560C395F04020F560905F8EE493F5F056
:104F400090F895E0B5F0004011905F8FE493F5F094
:104F5000E560C395F05001E4F560C25C3003253094
:104F60005D22A21E7226401C905F70E493B549003A
:104F7000501290F933E030E50512B60D800312B4FB
:104F8000E312B74212B0A8C25BC255D25690782F36
:104F9000E54E93F5F0C39560500385F06090F89A64
:104FA000E07004D257801530490214F090A003E558
:104FB0004E93C560C395605001E4F56090F89BE0A6
:104FC000F80582E0F9908A32E54E93F5F0E8C39552
:104FD000F0F8E99400F95003E4F8F990F89BE8F050
:104FE0000582E9F0E57A5401700612B067856061C8
:104FF000201D4E20254B201E48202645201C4220E7
:10500000243F202B3C202C39202D3690F9C2E02063
:10501000E72F30002C205E0590FD00800390FE00FD
:10502000AA57AB5C12AEDB305C19F5F0E56E20E7F9
:105030000825F0500E74F0801125F04006740F80A2
:10504000097480780F79F012ACD1F5F0E57A54103C
:10505000700385F06F205906E56B70028015908E05
:105060002AAA57AB5C12AE49780F79F012ACD1F591
:105070004F8003754F80E57A5404700EE57A54082A
:10508000600890F88FE02562F562E56230E701E4A0
:1050900090FAADF090F938E0F5F0E562240AC39596
:1050A000F05002C3E4940AF56212B863304B4D200D
:1050B000594AE57A54047044905FA4E493F5F09063
:1050C000F886E004600490F886F0B5F000500575AD
:1050D000F000800CE490F886F0906080E493F5F0A6
:1050E000E5622480F890F844E02480C398500DE0F5
:1050F000248025F0C39850042562F562E56290F89B
:1051000044F0F5F020E71490F9A0E020E70925F03D
:1051100030E702747F801625F0801290F9A0E0300D
:10512000E70925F020E7027480800225F0FA9060FC
:105130007EE493F890FAADE0F5F0905F8BE4932570
:10514000F0F9EA12ACE2F890F8C1F090FAAAE0FCAB
:105150009060D7E493B54900EC92E0FC9060E8E4FD
:1051600093B55300B3EC92E1FC90F8AEE0F5F0900B
:1051700060F8E493B5F000B3EC92E2FCA22EB39297
:10518000E3FCA259B392E4FCA253B392E5FC543F72
:10519000B43F00B392E790FAAAF050079060F9E4A8
:1051A00093801190607FE493F5F090FAABE0B5F056
:1051B0000050010490FAABF090607EE493F890FA0E
:1051C000ABE0F990F8C1E012ACE2F56290F8C1F002
:1051D000E53DB404005007E53CB41E004003022442
:1051E000D4E53CB53E7D90605FE493F8906060E468
:1051F00093F98554F090605EE493A490FF47E02417
:105200003CC395F050022478C3940B5002247812CA
:10521000ACD1F890F959F0E53DB2E175F01EA42546
:105220003CF990F95AF0C3950060384014B43C0042
:10523000400BE904B47800400294788017E91480A8
:1052400013F404B43C00400AE9C3940150022478EA
:105250008002E90475F01E84B2E1C2AF85F03EF52C
:105260003FD2AF90F9A0E090FAA6F09060E3E4930B
:10527000A2E0923E90F978E0AA57FB908B0012AE24
:105280004990F84DF075F015A4F8A9F012AD8B888F
:1052900044894590FF58E8F00582E9F08554F09084
:1052A000605DE493A4E5F02562FA90F84DE0F5F036
:1052B00090F94A30530390FF49E0F80582E0F91273
:1052C000AD0FE9600278FFE875F07BA4E5F0C394C8
:1052D0000E923DE5F0780679AE12ACD175F00684F9
:1052E00090F800F0E5F02390F801F0800C808B95A9
:1052F000A0ABB5C0CBD5E0EBF578807B2FE8C394AD
:105300008030E2027B11030379AC29F9E7F5F090D4
:10531000FAA6E0C395F0400575F0008004F404F5AA
:10532000F0E5F090FAA7F07490C39A305D0225F092
:10533000C39484500BF5F0EB2427FBE5F0C39404F1
:1053400075F00C842BB43C004002943CFBFCA9F0AB
:1053500090F801E0F5F0E9C395F05003240C1C909F
:1053600052ED93F5F09052EDE993F990F800E0CC0E
:10537000C39C5004243C8007B43C004002943CC2CF
:10538000AFF608A6F008A60308A601D2AF08B890A9
:105390000280030252FBE57954026004A271805A34
:1053A000A21B7223726E40193041099060C7E493CA
:1053B000F5F080079060C8E493F5F0E549B5F0009A
:1053C000B330593520413250309060EEE493F5F01F
:1053D00090F8BFE0701C9060EDE4932564F564F8EC
:1053E000790012AD7A90F845E8F00582E9F012AB49
:1053F000BFE404B5F000B35001E490F8BFF092416F
:1054000090F9A7E092E790F9A7F0E57954046007D6
:10541000A27250450254E5905F89E493F5F090F84C
:105420000DE0B5F0005076206E09905FBAE493F578
:10543000F08007905FBBE493F5F0E549B5F00050CC
:105440005C75F00612A558A2E7B390F86FE033F050
:105450006009F46048A26E40028042905F60E4936D
:10546000F5F090F9D4E0B5F0004032A26E4009901A
:105470005F5DE493F5F08007905F5EE493F5F0E5FF
:1054800052B5F000405F905F61E493F5F090F870E2
:10549000E0B5F00050070490F870F0805890F9A73C
:1054A000E0A2E5726E503C90F9A7E0C2E5F0E4900E
:1054B000F871F090F84FF0905FE5E493F5F090F814
:1054C000AEE0B5F0005015304919905FE4E493F573
:1054D000F090FA8CE004F0B5F0004007C26EE49062
:1054E000FA8CF0807490F9A7E020E56DE490F870F4
:1054F000F090FA8CF0305940905F5FE493F5F090B3
:10550000F871E07029905F5CE4932564F564905F26
:105510005BE493B549005009905F5AE4932564F524
:1055200064905F59E49390F84FF012ABBFE404909D
:10553000F871F0B5F0004021205910905FE3E4933A
:10554000F5F090F8AEE0B5F000400EE490F871F0A0
:1055500090F9A7E0D2E5F0D26E9060E0E493B55404
:1055600000924590605AE493B553005015A22A90DA
:10557000F98BE03400B40A004004D210800490F9A2
:105580008BF085225B905FA0E493B55300400353FA
:105590005BEF305303535BEF9060DAE493525B9020
:1055A00060DBE49352239060DCE49352249060DD4E
:1055B000E4935225905FADE493F5F090F9C2E05585
:1055C000F0F0304A0974FE5222E490F98BF0C244A4
:1055D00090F82EE0F80582E0F98555F012AD0FE560
:1055E000612480FAE4340085F0E988EA89EB75ECFF
:1055F000008AEDF5EE000000000000A8E9A9EAE548
:10560000EBE5ECE5EDE5EE2044C4856FF0AA00ABD8
:1056100001B2F712AD0FE56F30E70312ADAB75F0D5
:10562000E912AD0FACF0305B06780079007C009099
:10563000F862E8F00582E9F090F8AEE0F5F060334A
:10564000C24490F862E0F80582E0F98CE988EA89C2
:10565000EB75EC0085F0ED75EE0000000000000039
:10566000A8E9A9EAAAEBABECE5EDE5EE2044D1EA26
:105670004B600478FF79FF90F874E8F00582E9F058
:1056800090F8ADE004F0B40A08857FF0757F0080E3
:1056900019B41408854AF0754A00800EB41E378587
:1056A00056F0755600E490F8ADF0E5F090F8AEF0E5
:1056B000FA240275F00484B40F004002740F90F9CC
:1056C00048F08AF09060F0E493206D059060F1E47A
:1056D00093C395F0926D300C4A12B93E306D04C2FE
:1056E0002E8021202E3D9060F2E493F5F0E559B52F
:1056F000F0005002800E9060F3E493F5F0E55EB5A3
:10570000F0005007E490F8C0F08018304915906020
:10571000F4E493F5F090F8C0E00490F8C0F0B5F030
:1057200002D22E3045030257B2205F030257B290D7
:10573000F889E0F8540FF5F090F88EE0F9540FC3B3
:1057400095F012ADDBF5F0E854F0C4F8E954F0C47C
:10575000C39812ADDBC395F05001E425F0F5F0904D
:1057600060A7E493A4F5F090F88CE0C395F05002A4
:105770007400F890F88CE025F0500274FFF990F86E
:1057800089E090FD00F5823064020583E0FA12ACF6
:10579000D1786079A012ACD1F0F5F0E582B55F0860
:1057A000EAC395F0256EF56E90F889E004F070027A
:1057B000C25FA24C724D50030259BC3069030259BA
:1057C0004830490612B1B912B2039060DAE493444A
:1057D00080555BF5F090F4CAE045F0F09060DBE4B2
:1057E000935523F5F090F4CBE045F0F09060DCE4C5
:1057F000935524F5F090F4CCE045F0F09060DDE4B2
:10580000935525F5F090F4CDE045F0F0905FADE4D0
:1058100093F5F090F9C2E055F0F5F090F4CEE04544
:10582000F0F0905FB0E493F5F090F9C4E055F0F536
:10583000F090F4CFE045F0F0905FB1E493F5F09094
:10584000F9C5E055F0F5F090F4D0E045F0F0905F48
:10585000B2E493F5F090F9C6E055F0F5F090F4D18C
:10586000E045F0F030497D75920290F4C9759203DD
:1058700090F51275920490CA877A0075920090F4A0
:10588000D2EAB44002805D5407700C759202A3E026
:10589000F5F0E4F0759200E5F013F5F0E0400E202D
:1058A000E725603104B41400400CE48009600574FD
:1058B000FFF080057401F0801C759204E4937592EA
:1058C00003F0759200800E759204E49354BF7592B4
:1058D00003F07592000AA3759203A3759204A37551
:1058E0009200809D200B6130495E905FB4E493FC90
:1058F000905FB3E493FBC09275920290F51275929B
:105900000390F552D092E4FA90F4D2EAB4400280C7
:1059100037E030E722C0E0C092759203ECF0D092FD
:10592000D0E0304A12148BF0B5F00CC092759202A0
:10593000E0547FF0D092E4F00AA3C092759202A3E3
:10594000759203A3D09280C312C5B212C55CE579EB
:105950005401705F204D65D3305654905FE1E4935D
:10596000F5F090F807E0B5F0004048C27012C54B62
:10597000504190F9C2E030E72D90FAA1E054F07068
:105980002590F4C9E004F5F020E70AB419004011AD
:1059900075F080800CD270547FB41900400375F00C
:1059A00000E5F0F0800DE490F4C9F0D2708004C2FC
:1059B000708002A27090F9A7E092E4F030680302D0
:1059C0005A5730694D90F4B8E004F0649670123084
:1059D0006A0A90F4B9E0046001F0C26B12D04C8006
:1059E0003190F4BAE06014905FF7E493F5F090FA28
:1059F00097E004F0B5F0004019800690F4B6E0702E
:105A00001112CEB3E490F4BAF090FA97F075780CD6
:105A1000D27B90F4C5E030E103206B2F12B3B112BA
:105A2000B14B90F4C5E0FC54036403601EEC30E617
:105A30001730491790F4C6E014F0700FEC54BF9083
:105A4000F4C5F0437901C27012D297307B1E207CDE
:105A50000812D55212D594801330690512CE6A808F
:105A60000B12DC0B306B05E490F4B9F030690302E3
:105A70005AF230797D789186E030E57630561D9087
:105A80006082E493F564758680D2AED2BEE565652A
:105A90006470F6E56590F9C1F012B3B1C2AF74FF5E
:105AA00012C92912B43512B48E90FA5912C99C1237
:105AB000C94212C95F745590F9B0F078017900902D
:105AC000FD00C3E028F8E93400F9A3E583B4FFF250
:105AD0007A4090F4D2C3E028F8E93400F9A3DAF56B
