:1000000002E9CD0208B30000000000320000000049
:1000100000000002B9ED00000000000205780000B9
:1000200000000002D469000000000032000000005F
:100030006A3765735F7630382E33000000000000A9
:10004000000000320000000000000032000000004C
:10005000000000320000000000000032000000003C
:100060000000003200000000000000020119000042
:100070000000000000000000000000000000000080
:10008000000000320000000000000000000000003E
:1000900000000002B94D0000000000320000000026
:1000A00000000032000000000000003200000000EC
:1000B0000000000000000000000000000000000040
:1000C0000000000000000000000000000000000030
:1000D000000000320000000000000005783200003F
:1000E000C0D0C0E0C0F075D018AAC6ABC7BE3910EA
:1000F000EA2CF5C6EB3DF5C7C2C50E7F1C0202D047
:10010000C23B53C13F43C1400E7F1D0202D0D235D6
:1001100002023D000000000000203BC4C0D0C0E04F
:10012000C0F075D018E5C6C39AF8E5C79BF9303121
:10013000DDE505B404030201F2C39402500805058D
:100140000201DA0201D7ECC333F506ED3340F4F5D2
:1001500007E8C39506F506E99507F507D2D55010CF
:10016000C2D5E506F42401F506E507F43400F507E9
:10017000E506C39CF506E5079DF5075021ED6011E6
:1001800013547FF5F0EC132506E5F0350750488051
:100190002AEC13547F2506E43507503B801DED60A3
:1001A0000EF5F0ECC39506E5F09507402A800CECBF
:1001B00013547FC39506E49507401C20D5057505AB
:1001C000038017E505B4030FAAC6ABC70505C22A0D
:1001D000C23AC239020299750502AC18AD19AAC615
:1001E000ABC7D235020571203A5120394ED23A02BE
:1001F0000571E8C39CF506E99DF5075021ED6011F6
:1002000013547FF5F0EC132506E5F03507404180E7
:10021000D6EC13547F2506E43507403480C9ED60E1
:100220000EF5F0ECC39506E5F095075023800CEC35
:1002300013547FC39506E495075015D22A7505001F
:10024000C232C23353F60F43E8F043F6F0020571B1
:10025000AAC6ABC7A23A9239C23ABE381EAC18AD94
:1002600019D23B53C13F43C180D293EA2CF5C6EB70
:100270003DF5C7C2C50E7F1B0202D05019AC18ADA8
:10028000190EBE1E097F0005405340038042EE4018
:1002900002941EFF803ABE3BA27E007F002005072D
:1002A000C214E540048021E590A2E240053030050B
:1002B000800D30300AD21453F9BFE540048009C2E2
:1002C0001443F940B23033235402F5407002D23661
:1002D000D235ED54F86004C232C233EF103433B576
:1002E0003C30303315853034853135853233855691
:1002F0007FE4F530F531F532F556E540C3953D54D0
:1003000003F541EFD240D289853E3C853F3DD23452
:10031000D233B40073303253EA9536F538EB953763
:10032000F539C01878BEE62402F5F0B4BE004003EB
:1003300075F0B0A6F0A8F0A63808A639E5F0C0928E
:1003400075920590F9EBF0C394B090F9DDC3258266
:10035000F582E5833400F583E538F0E539A3F0D084
:100360009278BFE64401F6D018D2468A368B37D24F
:10037000320568E568D395694003756800E569C38F
:1003800094034003756801EFB413047890A640B459
:100390000835854043A23D9252D242D289E543B20C
:1003A000E123232480F8E543A23E340020E00D86BB
:1003B00010088611088612088613800B861408869A
:1003C00015088616088617EFB54C0CD295C28CE43A
:1003D000F58AF58CD28CEFB5720BC295C28C858AEA
:1003E00074858C75EFB40B02C2F8B40102D2F8EE3A
:1003F000B510778511F0C3EC33F8ED336012A4C863
:10040000A9F08511F0A4E825F0F8E93400F9800698
:10041000E8A4A8F07900EA28F8EB39300510201498
:100420000D200D0AC5F07990E7B4031DC5F053F611
:10043000EFF5E588E443F610E5686002C2EC2014AD
:100440001030050D200D0A80187990E7B40112C50F
:10045000F053F67FF5F588F443F680E5686002C254
:10046000EFA252E59A92E2F59AEEB512442052417B
:100470008513F0C3EC33F8ED336012A4C8A9F085FE
:1004800013F0A4E825F0F8E93400F98006E8A4A800
:10049000F07900EA28F8EB3953F6EFF5E588E44304
:1004A000F610D2EC53F67FF5F588F443F680D2EFE0
:1004B000EEB514778515F0C3EC33F8ED336012A474
:1004C000C8A9F08515F0A4E825F0F8E93400F98012
:1004D00006E8A4A8F07900EA28F8EB3930051020E6
:1004E000140D200D0AC5F07990E7B4001DC5F05336
:1004F000F6BFF5F388F243F640E5686002C2EE20ED
:10050000141030050D200D0A80187990E7B40212FE
:10051000C5F053F6DFF5E788E643F620E5686002AC
:10052000C2EDA252E59A92E2F59AEEB51643205238
:10053000408517F0C3EC33F8ED336012A4C8A9F07E
:100540008517F0A4E825F0F8E93400F98006E8A45E
:10055000A8F07900EA28F8EB3953F6BFF5F388F2F2
:1005600043F640D2EE53F6DFF5E788E643F620D2B5
:10057000EDD0F0D0E0D0D032C0D0C0E0C0F0C0822A
:10058000C08375D000C000C2AFC28EE58D60037518
:100590008BFFE58B24CBF58B74FA3400F58DD28E6E
:1005A000D2AFD5460E754614D248E54A60050460C0
:1005B00002F54A30683C0578E57864017005759964
:1005C00000801AE578643270147578000551E551A1
:1005D0006403700975783275AAD075BA03E578643A
:1005E000BE700C755100757800C268D269D2AC0239
:1005F0000752206967207923309C18207B15E57805
:10060000C394284013C29C53BEF7C27AD27B75783C
:10061000008005307B02057830793F0578E5786405
:10062000147037F578789206E66401700C78A88625
:10063000AA78917600D29C8021E6C394FA401BC22E
:100640009CC279C27DC27EE4F579F57AF57BF57CB2
:10065000F57D7891F612E3FAD29C803C05783079EA
:1006600034209C0FE578C39402402A78917600D21A
:100670009C8022E578C394FE401BC29CC279D27B49
:10068000D27C75780C90F603E064A0700575510675
:10069000800375510E020752205654E57C541070A9
:1006A00006E57C5420604890F960E0602414F090E6
:1006B000F961E0603A14F07036E57C54106006C2CF
:1006C000ECC2EF802AE57C54206024C2EEC2ED80AB
:1006D0001E43E8F07409F090F962E0601214F070C3
:1006E00008537CEF537CDF800690F9617408F0209A
:1006F0005660E57C540F605A90F95EE0603614F065
:1007000090F95DE0604C14F07048E57C30E00753F0
:10071000F6FBC2EA803C30E10753F6FDC2E98032C5
:1007200030E20753F6FEC2E8802830E32553F6F79F
:10073000C2EB801E43E80F90F95FE0601514F07083
:1007400005537CF0800C90F95E7409F090F95D74AB
:1007500005F030450302080FE5676003D5670EE535
:1007600064C39565400A30E70C747F800802080F67
:1007700020E70274807013E56660F2B4FF02800324
:10078000B4010675660002080FE42480F5F0D23F3C
:10079000E5662480B5F002803250189060CCE49376
:1007A000F5F0E566B5F002802204F566701D756609
:1007B0000180189060CCE493F404F5F0E566B5F0A0
:1007C00002800814F56670037566FFE56620E70F82
:1007D000906137E56693F567056575F000800DF467
:1007E0000490613793F567156575F0029060CDE46C
:1007F0009325F0F5F0E5FAA2E292E0A2E192E1544D
:100800000B25F020E10663FA0202080F63FA04E503
:1008100032046068300832C24375DC5B75DA002050
:10082000DCFDE5DA85D9F01043EDD243C2AF2530C7
:10083000F530E5F03531F531E43556F5560532D26F
:10084000AFE5F090F80CF08035C24375DC0375DA43
:100850000020DCFDE5D91043F2D24390F80CF0F50E
:10086000F090A35893C3C2AF2530C5F005839335EC
:10087000315002800785F030F5310532D2AF3001BA
:100880000D057653763FE576B57700B392FA30B52D
:100890000E103C02800B78C006080608068002D2C3
:1008A0003CD000D083D082D0F0D0E0D0D0308F02C6
:1008B000D21132C0D0C0E0C0F0C092759200C082A8
:1008C000C08375D008204203021631C242A874A921
:1008D0007512AD4990F8BAE0FA0582E0FB8AE98822
:1008E000ED8BEA89EE00000000A8E9A9EAAAEBABCB
:1008F000ECE54323FC74A02CF8A60A08A60B850A95
:1009000008850B0990FF41E8F00582E9F090F96E47
:10091000E543232582F582E0FA0582E0FB90FA8E1A
:10092000EAF00582EBF012AD9D400B90FA8EE0F8F4
:100930000582E0F9800990FF41E0F80582E0F99036
:10094000F966E543232582F582E0FA0582E0FB1291
:10095000AD9D905F7CE493F5F012AD1690F881E0C8
:1009600025F090F881F0E438F8E439F990F966E57B
:1009700043232582F582E0FA0582E0FB12AD96E979
:10098000F01582E8F0303716905F6FE493B54900B8
:10099000500990F965E0B4FF004006020A5B0209C5
:1009A000E290FF41E0F80582E0F990F934E0FA05C1
:1009B00082E0FB12AD9D905F52E493F5F012AD160C
:1009C00090F937E025F090F937F0E438F8E439F998
:1009D00012AD9690F934E8F00582E9F012B5A6025E
:1009E0000A5BE490F965F090F943E0F5F012AD048C
:1009F000E9600678FF790F800B850809A8F012AD31
:100A00008A12AD7690F96EE543232582F582E8F0EF
:100A10000582E9F090FA8EE8F00582E9F090FF4156
:100A2000E0FA0582E0FB90FA92E0F80582E0F91224
:100A3000AD9D401E90FA8EE0F80582E0F912AD9D62
:100A4000501990F9D1E0F80582E0F912AD9D40020D
:100A50008009A943905EE0E9934271305303021488
:100A6000E290F9EBE0C394B0FD90F9DDC32582F587
:100A700082E5833400F583E0F8A3E0F9E54330E054
:100A8000067A007B80800990FA2DE0FA0582E0FB6F
:100A90008AE988ED8BEA89EE00000000AAE9E5EA20
:100AA000A8EBA9ECA2E7E833F8E933F9ED90FA2FC7
:100AB000C32582F582E5833400F583E8F0A3E9F0ED
:100AC00078BEE6C394B06002C313FD305B00EDC393
:100AD000940350032407C333242FF5827583FAE06F
:100AE000FAFEA3E0FBFFEDC3940250032407C333D7
:100AF000242FF5827583FAE0F8A3E0F912AD9D503A
:100B00000EE4F8F990F9EDF090F9EEF0020C58903F
:100B1000F9EEF0E890F9EDF0EDC3940450032407EA
:100B2000C333242FF5827583FAE0F8A3E0F9EDC30F
:100B3000940050032407C333242FF5827583FAE011
:100B4000FAA3E0FB12AD9D500BC3E8F42401F8E9D1
:100B5000F43400F990FA09E8F00582E9F088E989AF
:100B6000EA75ED0475EE0000000000AAE9ABEAE5C5
:100B7000EDE5EE90F9F3EAF00582EBF090F9EDE0A7
:100B8000F80582E0F912AD9D5006E4F8F9020C5820
:100B900090FA03E8F00582E9F075E90E75EAE87568
:100BA000EBF575ECCE8EED8FEE000000000000A896
:100BB000E9A9EAAAEBE5ECE5EDE5EE75E90088EADE
:100BC00089EB8AEC75EF01000000000000A8E9A99C
:100BD000EAAAEBABEC88E989EA8AEB8BEC8EED8F25
:100BE000EE000000000000A8E9A9EAAAEBABECE5E2
:100BF000EDE5EE88E989EA8AEB8BEC75EF01000000
:100C000000000000A8E9A9EAAAEBABEC88E989EAB0
:100C10008AEB8BEC8EED8FEE000000000000A8E95F
:100C2000A9EAAAEBABECE5EDE5EE90FA07E8F005F2
:100C300082E9F090FA03E0FA0582E0FB8AE988EDA8
:100C40008BEA89EE00000000A8E9A9EAAAEBABEC68
:100C5000EA4B600478FF79FF90F93DE030E70A90B5
:100C6000FAA0E020E703E4F8F990F9F9E8F005824A
:100C7000E9F090F9FBE5432354FE2582F582E583F4
:100C80003400F583E8F0A3E9F090FA0FE0F5F0E91D
:100C9000B5F00090FA0BE0B392E4F05010905EE8EB
:100CA000E54393F5F090FA0BE045F0800F905EE895
:100CB000E54393F4F5F090FA0BE055F0F090FA105C
:100CC000E5432354FE2582F582E0F80582E0F990A1
:100CD0005FBF3059039060C1E493F404F5F012ADA6
:100CE00004890B880A90F9F9E0F80582E0F9905F31
:100CF000BF3059039060C1E493F5F012AD0412AD1A
:100D00009690FA10E5432354FE2582F582E8F0051B
:100D100082E9F090FA19E0F5F0E9B5F00090FA1FD9
:100D2000E0B392E4F05010905EE8E54393F5F09064
:100D3000FA1FE045F0800F905EE8E54393F4F5F08C
:100D400090FA1FE055F0F012B8DC8EE975ED038FD4
:100D5000EA75EE0000000000AEE9AFEA85EBF0E5D1
:100D6000ECEDC3940550032407C333242FF582759B
:100D700083FAE0FAA3E0FB8E088F0912AD96E5F046
:100D80003400FC880E890FEDC3940450032407C37C
:100D900033242FF5827583FAE0FAA3E0FB8AE97524
:100DA000ED038BEA75EE0000000000AAE9ABEA85CE
:100DB000EBF0E5ECEDC3940250032407C333242F7A
:100DC000F5827583FAE0F8A3E0F912AD96E5F03408
:100DD00000F5F0E8A80EFAE9A90FFB12AD9DEC951D
:100DE000F0FC5010C3E8F42401F8E9F43400F9EC05
:100DF000F43400FC600478FF79FF880A890B90FACC
:100E000007E0F80582E0F912AD7688E98AED89EA13
:100E10008BEE00000000A8E9A9EAE5EB85ECF045BF
:100E2000F0600478FF79FF905FBC3059039060C296
:100E3000E493F5F012AD04905FBDE493F5F012ADCC
:100E40000412AD4990F9F5E8F00582E9F0905FBC35
:100E50003059039060C2E493F404F5F090F9F7E0A0
:100E6000F80582E0F912AD0490F9F5E0FA0582E0A8
:100E7000FB12AD96E43400F5F090FA1BE8F0058221
:100E8000E9F0AAF07B0090FA1DEAF00582EBF0E5AC
:100E9000F0600478FF79FF90F93DE030E703E4F873
:100EA000F990F9F7E8F00582E9F0205B030214E21B
:100EB00090F93EE020E1030214E290FA73E004703E
:100EC0000114F0F5F0905FDAE493B5F0004003020E
:100ED00014E7E54330E0030214E7EDC39401500347
:100EE0002407C33324B0F8EDC3940550032407C38B
:100EF0003324B0F9E687F0870EC395F0FA08E609C7
:100F000087F0870F95F05008E490F9A9F00214E0FB
:100F100060030214E0EA90F9A9F075F003A4C5F0AB
:100F2000600375F0FFE5F0240275F0048490F9ABDE
:100F3000F0F5F090F9A9E0C395F090F9AAF0EDC3AF
:100F4000940450032407C33324B0F8E6FA08E6FB00
:100F500090F9E5EAF00582EBF08E088F0912AD9D5D
:100F600090F9AAE0FA7B0012AD9690F9ACE8F00592
:100F700082E9F0EDC3940250032407C33324B0F890
:100F8000E6FA08E6FB90F9E1EAF00582EBF08E085C
:100F90008F0912AD9D90F9ABE0FA7B0012AD9690EF
:100FA000F9AEE8F00582E9F0E9A2E790F9ADE0409A
:100FB0005372E7403F90F9ACE0FA0582E0FB12ADD6
:100FC0009D401490FA21EAF00582EBF090F9E5E0FB
:100FD000FA0582E0FB806E90F9AEE0F80582E0F958
:100FE00090FA21E8F00582E9F090F9E1E0FA058253
:100FF000E0FB80517800798090FA25E8F00582E9DD
:10100000F00214E082E050EC90F9ACE0FA0582E0E6
:10101000FB12AD9D501490FA21EAF00582EBF0909E
:10102000F9E5E0FA0582E0FB801B90F9AEE0F805F7
:1010300082E0F990FA21E8F00582E9F090F9E1E028
:10104000FA0582E0FB90FA23EAF00582EBF090FAD1
:1010500021E0F80582E0F912AD9690FA27E8F00554
:1010600082E9F090FA23E0F80582E0F912AD3B89BD
:101070000B880A90FA27E0F80582E0F975E9007517
:10108000EA0088EB89EC8AED8BEE0000000000009E
:10109000A8E9A9EAE5EBE5ECE5EDE5EE90FA25E84F
:1010A000F00582E9F090F942E030E00E905FFAE45A
:1010B00093F8905FFBE493F9800C905FC2E493F89F
:1010C000905FC3E493F912AD3390F940E090FA5782
:1010D0002582F582E0FA0582E0FB8AE988ED8BEA59
:1010E00089EE00000000ACE9ADEAAEEBAFEC90F9A0
:1010F00040E090FA4B2582F582E0FA0582E0FB8A17
:10110000E988ED8BEA89EE00000000A8E9A9EAAAC7
:10111000EBABECEC2AFCED3BFDEE3400FEEF3400D3
:10112000FF90FA25E0F80582E0F990F942E030E01E
:101130000E905FFAE493FA905FFBE493FB800C90CF
:101140005FC2E493FA905FC3E493FB8AE988ED8B76
:10115000EA89EE00000000A8E9A9EAAAEBABECE8F6
:101160002CF8E93DF992F790F940E090FA4B25828E
:10117000F582E8F00582E9F0A2F7EA3EFAEB3FFBE0
:1011800090F940E090FA572582F582EAF00582EB6B
:10119000F090F941E020E003021447740290FA57FE
:1011A0002582F582E0FA0582E0FB90FA25E0F80559
:1011B00082E0F912AD9D90FA3DE8F00582E9F0E990
:1011C00030E73712AD33905FC6E493FA905FC7E41F
:1011D00093FB8AE988ED8BEA89EE00000000E5E9DF
:1011E000A8EAA9EB85ECF02480E83400F8E93400A3
:1011F000F912AD7612AD33021228905FC6E493FA6D
:10120000905FC7E493FB8AE988ED8BEA89EE0000E2
:101210000000E5E9A8EAA9EB85ECF02480E83400B9
:10122000F8E93400F912AD7690FA3FE8F00582E96A
:10123000F090FA43E0F80582E0F9E930E73112ADC9
:1012400033880A890B905FC6E493F8905FC7E493F4
:10125000F912AD338AE988ED8BEA89EE00000000CF
:1012600085E9F0E5EAA8EBA9EC12AD330212978804
:101270000A890B905FC6E493F8905FC7E493F91274
:10128000AD338AE988ED8BEA89EE0000000085E93C
:10129000F0E5EAA8EBA9EC90FA3FE0FA0582E0FB62
:1012A00012AD9690FA43E8F00582E9F0E930E703E1
:1012B00012AD3390FA47E8F00582E9F090FA45E084
:1012C000F80582E0F9E930E73112AD33880A890B7D
:1012D000905FC6E493F8905FC7E493F912AD338A48
:1012E000E988ED8BEA89EE0000000085E9F0E5EA87
:1012F000A8EBA9EC12AD33021322880A890B905F88
:10130000C6E493F8905FC7E493F912AD338AE98895
:10131000ED8BEA89EE0000000085E9F0E5EAA8EB34
:10132000A9EC90FA3FE0FA0582E0FB12AD9690FA44
:1013300045E8F00582E9F0E930E70312AD3390FAB1
:1013400049E8F00582E9F090FA47E0FA0582E0FB0F
:1013500012AD9D400B90FA49E0F80582E0F9800952
:1013600090FA47E0F80582E0F990FA41E8F005824A
:10137000E9F090F942E0F5F020E01A905FCEE493B6
:10138000FA905FCFE493FB12AD9DE5F092E090F907
:1013900042F00214E0905FCCE493FA905FCDE493C6
:1013A000FB12AD9D50030214E0E5F054F090F942B9
:1013B000F0905FD0E49390FA63F090FA65F090FAC1
:1013C00067F0905FD1E49390FA64F090FA66F09041
:1013D000FA68F0905FC8E49390FA41F090FA43F015
:1013E000905FC9E49390FA43F090FA44F0905FCA9A
:1013F000E49390FA45F0905FCBE49390FA46F0E4E2
:1014000090FA2BF090FA2CF090FA2DF0748090FA6C
:101410002EF075F00C90FA4BE4F0A3D5F0FB75F0CC
:101420000690FA57E4F0A3A3D5F0FA75F00690FA07
:10143000587480F0A3A3D5F0FAE490FA25F07480F4
:1014400090FA26F00214E020E10302147B90FA6384
:10145000E0F80582E0F9E8C39401F8E99400500E41
:1014600090F942E0A2E092E190F942F0E4F8F990BC
:10147000FA63E8F00582E9F00214E020E2030214C6
:10148000AF90FA65E0F80582E0F9E8C39401F8E965
:101490009400500E90F942E0A2E092E290F942F0FE
:1014A000E4F8F990FA65E8F00582E9F00214E0202A
:1014B000E3030214E090FA67E0F80582E0F9E8C37C
:1014C0009401F8E99400500E90F942E0A2E092E312
:1014D00090F942F0E4F8F990FA67E8F00582E9F053
:1014E0008005E490FA73F090FA0BE0F5F090FA1FA3
:1014F000E045F0C5F090FA81E055F090F8CFF0604B
:101500007DE543239015087380068020803A80543F
:1015100090F8CFE030E06790F8CEE0F5F090F8CCAE
:10152000E0C325F0F0A3E03400F0805290F8CFE063
:1015300030E14B90F8CEE0F5F090F8CAE0C325F02A
:10154000F0A3E03400F0803690F8CFE030E22F9046
:10155000F8CEE0F5F090F8C8E0C325F0F0A3E03451
:1015600000F0801A90F8CFE030E31390F8CEE0F569
:10157000F090F8C6E0C325F0F0A3E03400F0E543B6
:1015800020E01390F93DE020E70C90FA78E0047039
:1015900002800602162D02163190F8CCE0F5F0A379
:1015A000E0C5F090FA79F0A3C5F0F0A8F0F990F852
:1015B000CAE0F5F0A3E0C5F090FA7BF0A3C5F0F027
:1015C000C5F0C328F8C5F039F990F8C8E0F5F0A3E4
:1015D000E0C5F090FA7DF0A3C5F0F0C5F028F8C59D
:1015E000F039F990F8C6E0F5F0A3E0C5F090FA7F85
:1015F000F0A3C5F0F0C5F028F8C5F039F95004782B
:10160000FF79FFE890FA83F0E9A3F0E490F8CCF0DA
:10161000A3F090F8CAF0A3F090F8C8F0A3F090F807
:10162000C6F0A3F090FA82E04401F0743790FA78A3
:10163000F02040030224B7C240200803021706121C
:10164000EAF890F98CE090720893FBAA5790929474
:1016500012AE34F5F090F99CE0F80582E0F9E5F07F
:101660002440F5F0E4340085F0E988EDF5EA89EEF0
:1016700000000000E5E9A8EAA9EBE5ECC3E913F9ED
:10168000E813F8905F09205903905F08E493F5F0A0
:1016900090F82CE0FA0582E0FB12AD9D12AD161217
:1016A000AD96E9F01582E8F090F82EE8F00582E9B1
:1016B000F0E5557007780079000216FA75E9E888B8
:1016C000ED75EA0389EE00000000A8E9A9EAAAEB9B
:1016D000ABECC2AFE5388539F0D2AF88E989EA8A48
:1016E000EB8BECF5ED85F0EE000000000000A8E9C2
:1016F000A9EAE5EBE5ECE5EDE5EE90F808E8F005A4
:1017000082E9F0021BFAE533700302178903547F64
:10171000F5F0E53425F0F534E5353400F5355006BF
:101720007534FF7535FF8534E98535EA8533ED7508
:10173000EE0000000000A8E9A9EAE5EDE5EE204C86
:101740002DC3E894E8F8E994035002E4F8F9E9704D
:101750002D20532A906062E493F5F0E8C3921E9521
:10176000F0501B90F80CE0C39407921EC22678003C
:10177000790090F808E8F00582E9F0021789C21EA6
:1017800090F808E8F00582E9F0304515905F71E4C3
:101790009390F949F0E490F989F090FAACF00218CE
:1017A00067A21D722540E590F98CE0FA75F00112F0
:1017B000A558F9D24390606BE493F5F0E9C395F036
:1017C000403990606CE493F5F0E9C395F0502C89B2
:1017D000F090F827E0C5F0C395F05001E4F5F090E3
:1017E0006068E493A4E5F090F98CF090606AE4936B
:1017F000C395F0500625F090F98CF0202E2B306D1B
:101800002890FA94E030E02190FAACE004B40700AC
:1018100040027407F5F0F0907856E5F09390F9499E
:10182000F0E490F989F0021867E490FAACF090F9CE
:101830008CE0C39A12ADC6B40200400B905F71E415
:101840009390F949F08020905F72E493F5F090F95D
:1018500089E004B5F000400B906074E49390F9497E
:10186000F0800490F989F090F808E0F80582E0F93A
:10187000906063E493F5F0E96008C395F0B39226B5
:101880008002C226A21E7226505BA21D7225403520
:10189000907208E55293FB90726DAA5712AE34F520
:1018A000F09063ACE54E93A4F8A9F0305911908FF5
:1018B00098E54E93F5F012AD0412AD7E0219E312D5
:1018C000AD8A0219E39060DFE493F5F09063ACE534
:1018D0004E93A4F8A9F012AD8A12AD8A90F808E8E8
:1018E000F00582E9F0E954FE600474FF8004E91316
:1018F000E81390FF48F090F808E0F80582E0F9C29C
:10190000AFE5388539F0D2AFF5E988ED85F0EA89A1
:10191000EE00000000A8E9A9EAAAEBABEC88E9898F
:10192000EA8AEB8BEC75EDE875EE03000000000031
:1019300000A8E9A9EAE5EBE5ECE5EDE5EE90F9456F
:10194000E0F5F012AD0412AD3B906073E493FB90B0
:101950006072E493FA12ACEC90F864E8F00582E966
:10196000F0204B030219C690FA9BE030E00B90F890
:1019700030E0F80582E0F9804D90F82CE0FA05821D
:10198000E0FB12AD9D90F9D4E09060D3E493F5F0C4
:10199000B5F0005009905F68E493F5F0801220598B
:1019A0000890F949E0F5F080079060E4E493F5F0E1
:1019B00012AD1690F882E025F090F882F0E438F845
:1019C000E439F912AD9690F82CE8F00582E9F09030
:1019D000F830E0FA0582E0FBEA5BB4FF028004A87D
:1019E0000AA90B90F82EE8F00582E9F0906064E413
:1019F00093FA906065E493FB12AD9DE4401890600B
:101A000066E493F5F012AD8A12AD04E97006E8B40D
:101A1000F000400274F0FA90F9BCE0C39A12ADC62F
:101A200090F9BDF0EA90F9BCF054FEF5F00390F99E
:101A300036F0E5F0906BC893F8E5F00493F990F96F
:101A4000A5E0601F90F9BAE8F00582E9F0E490F8AB
:101A50003EF090F83DF090F840F090F83FF0C2383A
:101A6000021BFA908F4AE54E93FC908FE6E54E9369
:101A7000FD90F9B8E8F00582E9F090F89DE0046087
:101A800001F090F9BDE0F5F0905FAAE493B5F000A5
:101A9000400B78007900A2605021021B3E90F9BAF9
:101AA000E0FA0582E0FB12AD9DE8497007A26050A4
:101AB0000A021B3E92605003021B3E90F9A1E8F01F
:101AC0000582E9F090F9B8E0F80582E0F990F9BAFA
:101AD000E8F00582E9F03038048DF080028CF07473
:101AE000FFC395F0F5F090F83FE0F80582E0F9309B
:101AF000382112AD3312AD0490F9A1E0FA0582E06D
:101B0000FB12AD9D5002C23812AD33E8497002C2DB
:101B100038801512AD0490F9A1E0FA0582E0FB12BD
:101B2000AD96500479FF78FF90F83FE8F00582E920
:101B3000F03038058DF0021BBA8CF0021BBA12ADE2
:101B40003390F9A1E8F00582E9F090F9B8E0F805E2
:101B500082E0F990F9BAE8F00582E9F03038048DB6
:101B6000F080028CF074FFC395F0F5F090F83FE040
:101B7000F80582E0F930381D12AD3312AD0490F94A
:101B8000A1E0FA0582E0FB12AD96500479007800DE
:101B900012AD33801312AD0490F9A1E0FA0582E092
:101BA000FB12AD9D5002D23890F83FE8F00582E973
:101BB000F03038048DF080028CF030381112AD33E3
:101BC00012AD0490F83DE8F00582E9F0800C12AD0A
:101BD0000490F83DE8F00582E9F090F83FE0F80560
:101BE00082E0F9E849600AA238E913F9A2E0E813B3
:101BF000F890F9A3E8F00582E9F02045033053039B
:101C0000021D9B90F98CE0F5F0907208E5F093FBD3
:101C10009075EFAA5712AE34FA90F8B8E0F5F0904C
:101C2000F98CE0C395F04003021CDF204539F42411
:101C300001F5F0905F74E493B5F00050258AF090C0
:101C4000F8ABE0C5F090F8ABF0C5F0C395F06017C5
:101C50004015F5F0905F73E493A4F8A9F012AD7EFF
:101C60008018EA90F8ABF090F98DE0F80582E0F981
:101C7000905F75E493F5F012AD0490F98FE8F005EC
:101C800082E9F090F98DE0FA0582E0FB12AD9D400B
:101C90000B90F98FE0F80582E0F9801390F98DE060
:101CA000F80582E0F9905F76E493F5F012AD0490C8
:101CB000F98DE8F00582E9F090F97BE0F80582E023
:101CC000F990F99FE0F5F012AD0490F97BE8F0058A
:101CD00082E9F090F97DE8F00582E9F0021DBC2070
:101CE0004539F5F0906054E493B5F00050288AF03F
:101CF00090F8ABE0C5F090F8ABF0C395F0601C40F5
:101D00001AF5F090F87EF0908393E54E93A4F8A92D
:101D1000F012AD768020EA90F8ABF090F944E02024
:101D2000E05290F97BE0F80582E0F990F99FE0F548
:101D3000F012AD04803590F97DE8F00582E9F0906D
:101D4000F97BE0FA0582E0FB12AD9D400B90F97D36
:101D5000E0F80582E0F9801390F97BE0F80582E075
:101D6000F9905F6CE493F5F012AD0490F97BE8F024
:101D70000582E9F090F98DE0F80582E0F9905F7650
:101D8000E493F5F012AD0490F98DE8F00582E9F0E6
:101D900090F98FE8F00582E9F08021E490F97BF07A
:101DA00090F97CF090F97DF090F97EF090F98DF04B
:101DB00090F98EF090F98FF090F990F090F98CE016
:101DC00090F8B8F090F82EE0F80582E0F9906064A1
:101DD000E493FA906065E493FB12AD9DE4401890A3
:101DE0006066E493F5F012AD8A12AD04E97006E87E
:101DF000B4F000400274F0F55C2404C423541FF5D1
:101E00005DE55C240854F0F5F0C4F55EE557240860
:101E100054F0C425F0F55F90F82EE0F80582E0F963
:101E2000205603022469205503021F7D90F89EE08E
:101E3000046001F090F887E0FA90F888E0FB907178
:101E40000B12AE967800F9908A99E54E9375F004DE
:101E500084F5F0907132E5F093F5F012AD049072D4
:101E600008E55293240854F0C4907A7793F5F01261
:101E7000AD04908C00E54E93F5F012AD0490FF4058
:101E8000E0F5F020E70612AD0412AD3B90F89BE8B8
:101E9000F00582E9F090F887E0FA90F888E0FB908E
:101EA000710B12AE967800F990F8AFE0F5F09071F2
:101EB00032E5F093F5F012AD04907208E5529324E8
:101EC0000854F0C4907A7793F5F012AD0490F89E20
:101ED000E0B43F004002743F908A5993F5F012AD90
:101EE0000490FF40E0F5F020E70612AD0412AD3B90
:101EF00030516F906059E493F5F090F829E0C39564
:101F0000F04005E490F829F0906058E493F5F090E3
:101F1000F829E004F014C395F0504790F887E0FAF0
:101F200090F888E0FB90717912AE967800F9907283
:101F300008E55293240854F0C4907A7793F5F01290
:101F4000AD0490F89EE0B43F004002743F908A597F
:101F500093F5F012AD0490FF40E0F5F012AD0412DD
:101F6000AD3B90F837E8F00582E9F090FF53E0A22E
:101F7000E0B3820F82054002D2500220D390F9A62E
:101F8000E0C39555400E90F9B7E0C39555401EF556
:101F900069305B1E7800790090F987E8F00582E9E6
:101FA000F090FF51E8F00582E9F002218D7569009B
:101FB000D25BE5612480F5F0E4340075E90088EA3D
:101FC00089EB75EC0085F0EDF5EE000000000000F7
:101FD000A8E9A9EAE5EBE5ECE5EDE5EE90F97FE0AF
:101FE000F5F012AD0412AD3B90F837E8F00582E948
:101FF000F090F89BE0FA0582E0FB12AD9D5009904D
:10200000F837EAF00582EBF090FAA320380390FA53
:10201000A4E0F5F090F836F090F83DE0F80582E0A5
:10202000F930383412AD0412AD6512AD3B85090BA1
:1020300085080A90F83BEAF00582EBF0E490F83965
:10204000F090F83AF090F837E0F80582E0F912AD38
:102050009D5003E4F8F9802712AD0412AD6512AD6E
:102060003B90F839E8F00582E9F0E490F83BF09015
:10207000F83CF090F837E0FA0582E0FB12AD96905C
:10208000F97BE0FA0582E0FB12AD9690F98DE0FA5B
:102090000582E0FB12AD9D5005E4F8F9801F205B3E
:1020A0001C90F8B1E0601614F0907CD7E55D93F5D4
:1020B000F085080A85090B12AD0412AD96E8496057
:1020C00007200507D250800B02217A90FF53E0A22F
:1020D000E0925030500312AD7685080A85090B85D1
:1020E0006FF0B2F712AD04E56F30E70912AD96500C
:1020F0000478FF79FF85080A85090B854FF0B2F750
:1021000012AD04E54F30E70912AD96500478FF791F
:10211000FF906057E493F5F012AD0490FF51E8F0A2
:102120000582E9F085080E85090FAA57AB5C90A0DF
:102130007112AE34F50A90FAB1F054F8030303902B
:10214000FAB2F090A05112AE0C90FAB3F0F5F0850F
:102150000E08850F0912AD0490F987E8F00582E9B1
:10216000F0E8496028AA507B0012AD9630500B90E1
:1021700060D9E493FA7B0012AD96D3905FA8E49304
:10218000FA98740193FB994004EAF8EBF990F8414E
:10219000E8F00582E9F075F01012AD0485F0E988E9
:1021A000EA89EB75EC0075ED0C75EE00000000009F
:1021B0000000A8E9A9EAE5EBE5ECE5EDE5EEE84984
:1021C0007003022295AB4130500DEBB2E1F5F09077
:1021D0006100E5F093F5F0906100EB93FBE57C5432
:1021E0000170287400B50B02800630501EB5F01B3C
:1021F00053F6FBC2AFC2EAF5C2D2AFE5C228FAE598
:10220000C339F5D78AD643F604D2EAE57C54027086
:10221000287401B50B02800630501EB5F01B53F632
:10222000FDC2AFC2E9F5C2D2AFE5C228FAE5C339B3
:10223000F5D58AD443F602D2E9E57C5404702874BB
:1022400002B50B02800630501EB5F01B53F6FEC2DD
:10225000AFC2E8F5C2D2AFE5C228FAE5C339F5D37B
:102260008AD243F601D2E8E57C540870287403B59D
:102270000B02800630501EB5F01B53F6F7C2AFC2FA
:10228000EBF5C2D2AFE5C228FAE5C339F5E38AE23D
:1022900043F608D2EB90FF51E0F80582E0F9906038
:1022A000D4E493F5F0E8C395F0FAE99400FB500408
:1022B0007A007B0090FF54EAF00582EBF090F93948
:1022C000E0F80582E0F912AD9690F939E8F0058260
:1022D000E9F03050067B067A50800C9060FEE49363
:1022E000FA9060FFE493FB12AD9D402A90F939E823
:1022F000F00582E9F053A6FD75C90FC2AFD2F9F51A
:10230000CED2AFE5CE2494FAE5CF3400F5A48AA36B
:1023100075C99843A60220531C90F82EE0F8058258
:10232000E0F990F8F5E028F00582E039F00582E068
:1023300034004001F0300E0C30450CE490F993F07D
:1023400090F994F002246990F97BE0F80582E0F9B5
:10235000E8497013E490F993F090F994F090F87FC5
:10236000E054FEF00223D290F87FE04401F03050B8
:102370000312AD7685080A85090B856FF0B2F71256
:10238000AD04E56F30E70912AD96500478FF79FF90
:10239000906057E493F5F012AD04AA507B0012ADA3
:1023A0009690F993E8F00582E9F075F01012AD040B
:1023B00085F0E988EA89EB75EC0075ED0C75EE00A7
:1023C000000000000000A8E9A9EAE5EBE5ECE5ED76
:1023D000E5EEE8497003022469E57C5401701E3083
:1023E000EA1B53F6FBC2AFC2EAF5C2D2AFE5C22880
:1023F000FAE5C339F5D78AD643F604D2EAE57C5428
:1024000002701E30E91B53F6FDC2AFC2E9F5C2D21D
:10241000AFE5C228FAE5C339F5D58AD443F602D22E
:10242000E9E57C5404701E30E81B53F6FEC2AFC2CF
:10243000E8F5C2D2AFE5C228FAE5C339F5D38AD2AE
:1024400043F601D2E8E57C5408701E30EB1B53F6CE
:10245000F7C2AFC2EBF5C2D2AFE5C228FAE5C33985
:10246000F5E38AE243F608D2EBE490F944F0E54361
:10247000703F90F93EE0F5F0A2E090FA71E0F805C7
:1024800082E0F9E83400F8E93400F9500478FF7983
:10249000FF90FA71E8F00582E9F0905FD8E493FAD2
:1024A000905FD9E493FB12AD9DE5F092E190F93E87
:1024B000F090F899E004F0D244759200D083D08275
:1024C000D092D0F0D0E0D0D032C2AFE5A930E60C47
:1024D000E5616455700302256802261875A9007528
:1024E0008680D2AED2BE75B1007581C375D000753D
:1024F00090FF75B0FF75E8FF75F8BF75FAFF75F9C5
:10250000A890F8C2E06455700C90F4C5E020E50591
:10251000D26B02261812CD3A12CB5890F9BEE06465
:1025200055600612CC0C12CAC7D268E490F4B7F01A
:10253000306A1990F9BEE0F5F06455600FE5F0647B
:10254000AA7004EF30E30312BC1AD268745F90F9EA
:10255000A7F0744F90F9A8F012EA32E4F522F523BF
:10256000F524F52590F9BEF0C2F9E490F9C2F09097
:10257000F8C2E06455601778ABE6B4A502800F900E
:10258000F9C2E04402F0E490F4B9F012B30812C5C5
:102590000D12C50DE4F6F56175F00312A558F8C3E8
:1025A00094DA404DE8C394E7504775F00012A558FF
:1025B000F8C394AA403BE8C394B2503575F00412B6
:1025C000A558F8C394F24029E8C394FE502375F04F
:1025D0000112A558F8C394124017E8C3941E501175
:1025E00075F00212A558C39460400675615502E368
:1025F000F712C31112C32E12C36812C3A312C34B26
:1026000012C3FA12C88BED6455700790F9C2E0301E
:10261000E10312C68812D15C7586E2D2AED2BEC288
:10262000AF7581C375B10075D00075C10075F60036
:1026300075C900532D1F782C7600D8FC782E7600B3
:1026400008E870FA43B9807580FF43B98075901C23
:1026500043B98075A00043B98075B03943B980751E
:10266000E80043B98075F82043B98075FAD043B9C2
:102670008075F90043B140E4F5D8F5DCF5DAF5D919
:10268000F5EFF5C2F5C3F5C4F5C5F5C6F5C7F5CE4A
:10269000F5CFF5F6F5D2F5D3F5D4F5D5F5D6F5D7D2
:1026A000F5E2F5E3F5E4F5E5F5E6F5E7F5F2F5F342
:1026B000F5F4F5F5F5CAF5CBF587F599F59CF598A0
:1026C000F588F58AF58CF58BF58DF5CCF5CD75B4DF
:1026D000D5758915D28AD28875C88575BE0075E111
:1026E000C375BC4375DF0075DE0043B11075DFFEB6
:1026F00075DE0C53B1EF75F70075C14C75C900C29A
:10270000AAC2B9E5A95440600A90F9B0E0645560E6
:1027100002D21575B92C75A93412C1B990F8C2E06E
:10272000B4550302278790F9C2E020E13978017996
:102730000090FD00C3E028F8E93400F9A3E583B474
:10274000FFF27A4090F4D2C3E028F8E93400F9A30C
:10275000DAF590F8FEE0FA0582E0FB12AD9DE8495B
:102760006004D2168002C21675F03490F900E4F0CD
:10277000A3D5F0FB90F800E4F0A3E58270F9E490B3
:10278000F997F090F4B8F0E490F965F090F985F0DD
:1027900090F986F090F98BF09060E6E49390F9530D
:1027A000F090609DE49390F954F0905F50E4939022
:1027B000F943F0905F53E49390F946F0905F54E44E
:1027C0009390F947F090F9557405F0A3F0A3F0A3A6
:1027D000F090F9C2E0A21672E1B015905F51E49357
:1027E00090F934F090F966F090F968F090F96AF099
:1027F00090F96CF0E490F935F090F967F090F96990
:10280000F090F96BF090F96DF090F934E0F80582F2
:10281000E0F99060E7E493F5F012AD04E960067822
:10282000FF790F800A8801A8F012AD8A12AD769068
:10283000FA92E8F00582E9F090F9D1E8F00582E932
:10284000F0D26212E9ACE4F567F56690F828F090F2
:10285000F9B0F090F9C3F090F9CEF090F9CFF09084
:10286000F9D0F090F9C4F090F9C5F090F9C6F09065
:10287000F9C7F090F9C8F090F9C9F090F9D5F09047
:10288000F9DCF090F4C9F090FA8CF090F95BF090DC
:10289000F95CF090FA8DF090F99DF090F99EF0902F
:1028A000F97AF090F936F090F944F090FA94F090BB
:1028B000FA96F090F9A0F090FA97F090F93CF09029
:1028C000FA9BF090F94CF090F976F090FF46F0907A
:1028D000F9A0F090FAA5F090FAA6F090FF57F090CA
:1028E000F9A7E0D2E6F074FFF55A90F9CAF090F932
:1028F000CBF090FA81F0906061E49390FF47F09004
:102900005FF8E493F53CF53E905FF9E493F53DF50F
:102910003F905F71E49390F949F0905F86E4939063
:10292000F893F090F895F0E490F88FF090F97BF040
:1029300090F97CF090F97DF090F97EF090F98DF0AF
:1029400090F98EF090F98FF090F990F090F993F063
:1029500090F994F090F98CF090F99BF090F99CF03C
:1029600090F9A3F090F9A4F090F9A1F090F9A2F0F9
:1029700090F9C0F090F9D3F090F936F090F9D4F0D6
:1029800090F94AF090F94BF090FF49F090FF4AF02F
:1029900090FF4BF090FF4CF090FA0BF090FA1FF084
:1029A00090F8CFF090FA79F090FA7AF090FA7BF004
:1029B00090FA7CF090FA7DF090FA7EF090FA7FF039
:1029C00090FA80F090FA78F090FA87F090FA88F018
:1029D00090FA89F090FA8AF090FA82F090FA83F0F7
:1029E00090FA84F090FA85F090FA86F090FA82F0EE
:1029F00090FAA1F090FA10F090FA11F090FA12F01B
:102A000090FA13F090FA14F090FA15F090FA16F08C
:102A100090FA17F090FA0EF0E490FA71F090FA72D2
:102A2000F090FA73F090FA75F090F93EF07480909F
:102A3000F93DF078BE76B078BFE644FEF674FF90BC
:102A4000F830F00582F0742090F843F074FF90F8AD
:102A500035F0906067E49390F8B2F090F827F07545
:102A60006E009060A4E493F56FD2707400F57790D7
:102A7000F806F0D258D253D25490F9C2E0A215A071
:102A8000E1A0164007D262E490F9BFF0D251C25FD4
:102A900012ACA590F9C2E0A21572E17216500D12A7
:102AA000A7C6748090FF40F090F97FF0905F97E4A4
:102AB00093F8905F98E493F990FF40E012ACC690D1
:102AC000FF40F090F9C2E0A21572E1721640089042
:102AD00060DEE49320E00F75F04090F4D2E4F0A3C0
:102AE000D5F0FB12DAEF12B2F9E490F4D8F090F5D9
:102AF00018F075F02090FF40E090F8D0F0A3D5F0EA
:102B0000FB90F4D6E0A2E7E492E090FF53F075F07A
:102B10000412A55890F80BF0F9C42354E0FBE90324
:102B20000303541FFA90610412AE96C3941450022A
:102B30007400F54990F99BF090F9C7F090609CE41F
:102B400093F5F0E549A42440500205F030F70474F1
:102B5000F0800CA2E7E5F033B4F000400274F0908E
:102B6000FF4DF0C4540F90FF4EF0E549240375F07B
:102B70000584B4240040027424F54E12ECB5E549F6
:102B800075F00584B424004002742490F887F0E5C1
:102B9000F075F033A490F888F0740390F8B0F075F5
:102BA000F00112A558F5F090F827E0C5F0C395F0B4
:102BB0004019F5F0906068E493A4A8F090606AE48E
:102BC00093C395F0500725F0F880027800E8F5529D
:102BD00090F98CF090F8B8F075F00012A55890F8C4
:102BE0000DF090F951F0F9E490F950F09060BAE4EA
:102BF00093F5F0E9B5F00040119060BBE493F5F077
:102C0000E9B5F0005004894B80079060BFE493F56C
:102C10004B9060BCE493F5F0E54BC395F05001E4B4
:102C2000F5F09060BDE493A430F70474FF800433A2
:102C3000E5F03390F978F09071D812AF50F550E488
:102C400090F9B1F090F9B2F090F9B5F0740390F901
:102C5000B3F0A3742EF075F00312A558F8C39428AE
:102C60004015E8C3943C500FE890F9B1F0905FA68E
:102C7000E4932890F9B2F0908F71E54E9390F9A506
:102C8000F09087E4E54E93F560F561300118D25E6F
:102C90009060D1E493C395499060CE50039060CF8B
:102CA000E49390F868F043FA20754614C248758B97
:102CB000CB758DFAD28ED2AED2BED2A8D2ABD2AA6A
:102CC00090F8C2E06455601830160612B30812B3CB
:102CD0006190F9C2E0A21672E1500512AC6880144E
:102CE000E54990F80AF0906AA1E54E93F56490F9F1
:102CF000C1E0F565E564F8790012AD6590F845E846
:102D0000F00582E9F0745590F8C2F012B04090607E
:102D10005CE49390F9A6F090F9B7F07568FF7569D7
:102D2000FF754A00D2BDD2AF3048FDC248D2AED204
:102D3000BEA2599261A25D926312E9AC300C1920D7
:102D40002E1690F8AEE0F5F0906075E493B5F000C3
:102D50004010E4F54A022D6DE4F54A90F9A6E00230
:102D60002D7EE54A7002054A030303541F907AA79B
:102D700093F5F090F9A6E0B5F0004002E5F090F987
:102D8000B7F030081830581275F00312A55890F8B3
:102D90000CF0C24412EAEA2044F812ECCA7893E636
:102DA00090F93CF09065D3E5589390F946F0906522
:102DB000F3E5589390F947F090F946E0B41E0040CF
:102DC00002741DF0C3940B5002241EF890F947E0E2
:102DD000B41E004002741DF0C3940B5002241EFA6E
:102DE000C2AF8A72884CD2AF906088E493B5490034
:102DF0004003E4802790F97BE0F80582E0F9905FDA
:102E00008CE493F5F012AD04E9600278FF905FABBB
:102E1000E493F5F0E8B5F0004002E5F090F938F001
:102E2000103550E55A046006F55A90FA95F020588E
:102E30006BE55AB416004064D258C231E4F553F53C
:102E400054F555F557F558F538F53990F873F09075
:102E5000F89EF090F94CF090F94AF090F94BF09010
:102E6000FF49F090FF4AF053F60F43E8F043F6F0C5
:102E7000023009305823E55AB40B00501C90F87307
:102E8000E0046001F090606FE493F5F090F873E077
:102E9000B5F0004004D231C258755A00C2AFAA1C26
:102EA000AB1DD2AFEA4B7003023009C24475E93062
:102EB00075EA8275EB0075EC008AED8BEE00000080
:102EC000000000A8E9A9EAAAEBABECE5EDE5EE20ED
:102ED00044CAEA4B600478FF79FF90FF49E8F005A7
:102EE00082E9F0104603023009C2AFAA38AB39D2EA
:102EF000AFEA4B7003023009C24475E94075EA42FB
:102F000075EB0F75EC008AED8BEE00000000000001
:102F1000A8E9A9EAAAEBABECE5EDE5EE2044CAEAA4
:102F20004B600478FF79FF90F94AE0FA0582E0FBF4
:102F300090F94AE8F00582E9F012AD9D400EE96093
:102F400003E48011E830E70D747F8009B9FFF2E8EF
:102F500020E702748090F94CF0A2E790FF45E0333F
:102F600090FF45F090F94AE0F80582E0F9E8240185
:102F7000F5F0E9340040031360057553FF8005E563
:102F8000F013F553E82404F5F0E93400401113C5BB
:102F9000F013C5F0C313C5F013C5F0C31360047478
:102FA000FF8003E5F013F5F095555001E490FA74B5
:102FB000F085F055E555B41F004002741F90F8AF3E
:102FC000F0E82403F8E93400F9401EC24488E98996
:102FD000EA75ED0675EE0000000000AAE9ABEAE52F
:102FE000EDE5EE2044E5EB60057554FF80028A5460
:102FF00090613CE55593F5572404C423541FF558BC
:10300000E5572408C4540FF5593058030230629034
:10301000F95BE0304904046001F0F5F0909CC7E5ED
:103020004E93B5F000500A90F9A7E0C2E6F00230E6
:10303000628553F0909CEEE54E93B5F0004007E4B6
:1030400090F95CF0801C90F95CE0046001F0F5F010
:10305000909D15E54E93B5F000500790F9A7E0C29A
:10306000E6F0907208E55293240854F0F5F0C4900D
:10307000F979F0E5F02559FA907AC7EA93F5F0A2CC
:10308000F4B062923790F933F0540F90F932F0A215
:103090001D7225500CAB5CAA5790681312AE348099
:1030A0000F907208E55293FBAA57907CF712AE344A
:1030B00090F945F090FAA2E004F0F5F0AA5790F8E4
:1030C0007DE0FB20F00590736D800390852F12AE9C
:1030D00034F5F090F89DE0F97800E5F012ACC6FA0E
:1030E00090FAA2E020E007EA90FAA4F08005EA90C6
:1030F000FAA3F0909822E493B55500400775F000CC
:1031000074008041740193B55500400775F0017457
:10311000028032740293B55500400775F0027404C2
:103120008023740393B55500400775F0047406803E
:1031300014740493B55500400775F00874088005B1
:10314000740A75F01090F940F0E5F090F941F054F0
:103150000F601890F942E030E01130E10E30E20BE0
:1031600030E30890F93EE0D2E0800690F93EE0C2FC
:10317000E0F0909694E5589390F94EF09096B4E56F
:10318000589390F94FF090F942E0F5F020E00B9061
:10319000F94FE090F94DF00231E690F941E0541F0B
:1031A0007004E40231E630E004E40231E630E10E7E
:1031B00030F104E40231E690F94EE00231E630E20B
:1031C0000C30F203E4801F90F94EE0801930E30CDC
:1031D00030F303E4801090F94EE0800A30F303E40A
:1031E000800490F94EE090F94DF090F942E020E033
:1031F00026E490FA69F090FA6BF090FA6DF090FA8C
:103200006FF0748090FA6AF090FA6CF090FA6EF0B9
:1032100090FA70F002335590FA59E0F80582E0F91F
:1032200090FA69E8F00582E9F090F942E030E14B6C
:1032300090FA5BE0F80582E0F990FA59E0FA05822D
:10324000E0FB12AD9D12ADCC9060FCE493FA90606F
:10325000FDE493FB12AD9D90FA5BE0F80582E0F986
:10326000402290F942E0C2E1F0905FD0E49390FAFE
:1032700063F0905FD1E49390FA64F090FA59E0F82B
:103280000582E0F990FA6BE8F00582E9F090F942E6
:10329000E030E24B90FA5DE0F80582E0F990FA59EF
:1032A000E0FA0582E0FB12AD9D12ADCC9060FCE42B
:1032B00093FA9060FDE493FB12AD9D90FA5DE0F807
:1032C0000582E0F9402290F942E0C2E2F0905FD03E
:1032D000E49390FA65F0905FD1E49390FA66F090F1
:1032E000FA59E0F80582E0F990FA6DE8F00582E914
:1032F000F090F942E030E34B90FA5FE0F80582E0AD
:10330000F990FA59E0FA0582E0FB12AD9D12ADCCBE
:103310009060FCE493FA9060FDE493FB12AD9D9005
:10332000FA5FE0F80582E0F9402290F942E0C2E35A
:10333000F0905FD0E49390FA67F0905FD1E49390BF
:10334000FA68F090FA59E0F80582E0F990FA6FE82F
:10335000F00582E9F0E555B480004002747F909852
:10336000279390F93FF0C4540FF5F090FA69258245
:10337000F582E0FA0582E0FB0582E0F80582E0F9DB
:1033800012AD9D50030233B590F93FE0C454F0F5FF
:10339000E988ED75EA0089EE00000000E5E9A8EA99
:1033A000A9EB85ECF02480E83400F8E93400F91248
:1033B000AD960233E512AD3390F93FE0C454F0F519
:1033C000E988ED75EA0089EE00000000E5E9A8EA69
:1033D000A9EB85ECF02480E83400F8E93400F91218
:1033E000AD9D12AD33905FEAE493FA905FEBE49306
:1033F000FB12ACEC905FECE493FA905FEDE493FB8E
:1034000012ACF890FA2DE8F00582E9F090F93DE071
:10341000FC905FD2E493B55500EC92E0FC905FD352
:10342000E493B55500B3EC92E1FC905FD6E493F5DC
:10343000F090F9BDE0B5F000EC92E2FC905FD5E4CD
:1034400093F5F090FA74E0B5F000EC92E3FC909BF9
:10345000A7E55893F5F090F82EE0F80582E0F91210
:10346000AD8AE9600278FFE8B5F000B3EC92E4A21F
:103470005BB392E5FC905FD7E493F5F090F9D4E06C
:10348000B5F000B3EC92E6FC547FB47F1E90FA7561
:10349000E004700114F0F5F0EC30E71B905FDBE422
:1034A00093B5F0005011ECC2E78008E490FA75F093
:1034B000ECD2E790F93DF090FAA0E0FC905F94E444
:1034C00093B54900EC92E0FC905F95E493B5490018
:1034D000B3EC92E1FC905FFCE493B55C00EC92E20B
:1034E000FC90F8AEE0B40100EC92E3FCA25BB39276
:1034F000E4FC90F93DE0A2E1EC92E5543FB43F00DA
:10350000B392E790FAA0F0AA57AB5C909BC712AEBB
:103510003490F8CEF030560890FAA1E054046003DD
:1035200002377690FA82E0F5F054016002800302DF
:1035300036CEE5F054FEF090FA83E0F80582E0F92B
:1035400012AD7EE890FA85F0E9A3F090FA83E0F8F6
:103550000582E0F9905FDCE493FAE4A393FB12ADFB
:103560009D400B90FAA1E04402F0C25C803A90FAD0
:10357000A1E054FDF0D25C90FA87E0600214F09074
:10358000FA88E0600214F090FA89E0600214F0908A
:10359000FA8AE0600214F090FA82E0541FF090FA88
:1035A000A1E054FEF002367790FA79E0F80582E067
:1035B000F9905FDEE493FAE4A393FB12AD9D40081B
:1035C00090FA87E0046001F090FA7BE0F80582E071
:1035D000F912AD9D400890FA88E0046001F090FA7D
:1035E0007DE0F80582E0F912AD9D400890FA89E08F
:1035F000046001F090FA7FE0F80582E0F912AD9DD9
:10360000400890FA8AE0046001F090FA85E0FA053B
:1036100082E0FB90FA79E0F80582E0F912AD9D9026
:10362000FA82E040044420800254DFF090FA7BE00C
:10363000F80582E0F912AD9D90FA82E04004444022
:10364000800254BFF090FA7DE0F80582E0F912ADF7
:103650009D90FA82E0400444808002547FF090FA0A
:103660007FE0F80582E0F912AD9D90FAA1E04004F8
:103670004401800254FEF0905FE0E493F5F090FA8C
:1036800087E0B5F00090FA82E040044402800254E2
:10369000FDF090FA88E0B5F00090FA82E040044432
:1036A00004800254FBF090FA89E0B5F00090FA82B1
:1036B000E040044408800254F7F090FA8AE0B5F044
:1036C0000090FA82E040044410800254EFF090FA37
:1036D00082E0035470F5F090FAA1E0A2E092F7E5E1
:1036E000F0602290F9C2E04480F090F9C6E045F025
:1036F00030501FA2F472F650024450A2F572F750F7
:103700001144A0800D90F9C2E0547FF090F9C6E01A
:10371000540FF090FA82E003540FC455F0F5F09086
:10372000FAA1E0540F45F0F5F06017305014335013
:1037300002D2F5335002D2F4335002D2F7335002A2
:10374000D2F690FAA1E0540F45F0F0C4540F75F092
:1037500000135002D2F0135002D2F2135002D2F3EF
:10376000135002D2F1E57C45F0F57CE5F06007905E
:10377000FAA1E04404F075F00912A55890FA99F006
:1037800075F00412A55890F80BF090F81312AF1EC4
:1037900075F00812A55890F80EF090F81912AF1EA7
:1037A00075F00012A55890F80DF0F89060CAE493F7
:1037B000B50000401E204C35905FF1E493F5F09089
:1037C000FA8DE004F0B5F0004023D24CE490F87C90
:1037D000F0801A304C1090F9A7E0D2E6F0E490F9AE
:1037E0005BF090F95CF0C24CE490FA8DF0905F6E63
:1037F000E493F404F5F090F950E0F80582E0F91252
:10380000AD04905F6EE493F5F090F80DE0A4FAAB90
:10381000F012AD9690F950E8F00582E9F09060BAA8
:10382000E493F5F0E9B5F000401A9060BBE493F53D
:10383000F0E9B5F0005030C218C220E490F9C3F0AE
:10384000894B805F204C3E20183B905FAFE493F59E
:10385000F090F9C3E004F0B5F0004029D218C2207E
:10386000E490F9C3F0801E20201B905FAFE493F535
:10387000F090F9C3E004F0B5F0004009C218D2207E
:10388000E490F9C3F09060BEE493F5F0E555B5F02F
:103890000050099060BFE493F54B80079060C0E44E
:1038A00093F54B9060BCE493F5F0E54BC395F05075
:1038B00001E4F5F09060BDE493A430F70474FF8058
:1038C0000433E5F03390F978F09071D812AF50F5E9
:1038D0005090F850F075F00112A55890F8A9F090AA
:1038E000F81D12AF1E90F812E0700CE5F090F8256C
:1038F000F090F826F0802090F825E0C395F040087D
:10390000E5F090F825F0800F90F826E0C395F05090
:1039100006E5F090F826F090F812E004F0B42004E8
:10392000E4F08003023B82E57A548060030239DBD5
:1039300090F813E0F80582E0F912AD57E82480E929
:103940003400F99060B5E493F5F090F873E0B5F0C9
:1039500000401A9060B1E493F5F0E9B5F0004060E2
:103960009060B2E493F5F0E9B5F0005059E9C42352
:1039700054E0FBE9030303541FFA90610412AE966E
:10398000C3941450027400F54990F9C8F0C21BC2E8
:1039900023F5F090F9C9E07042905FB6E493B5F07A
:1039A00000503890F9C7E0C5F0C395F0F5F0905F8E
:1039B000B5E493B5F0005023740190F9C9F0801B71
:1039C000D21BC2238004C21BD22390F8ACE054F077
:1039D000C4F5F0907DF7E5F093F549E549240275CB
:1039E000F00584B4240040027424F54E12ECB59026
:1039F000609CE493F5F0E549A42440500205F030C2
:103A0000F70474F0800CA2E7E5F033B4F000400254
:103A100074F090F87DF0C4540F90F880F0E549758B
:103A2000F00584B424004002742490F887F0E5F097
:103A300075F033A490F888F0740390F8B0F0300477
:103A40007DE57B5401705A90F819E0F80582E0F9A1
:103A500012AD579060B8E493F5F090F8ACE0B5F093
:103A600000401A9060B6E493F5F0E9B5F000401E0E
:103A70009060B7E493F5F0E9B5F0005017E9906174
:103A80002612AF2B90F93BF0C21AC2228013D21A31
:103A9000C2228004C21AD2229060B9E49390F93B0A
:103AA000F090F93BE075F00584B4240040027424E2
:103AB00090F931F0E5F075F033A490F8F1F090F85A
:103AC00025E0F5F090F826E0C395F0F5F0906069F8
:103AD000E493C395F0402990F81DE0F80582E0F9E1
:103AE00012AD57E82480E93400F990F8B2E0C399A8
:103AF000400E600CE90490F827F090F8B2F08020B6
:103B000030091D90F805E07017906067E493F5F0B8
:103B100090F8B2E0C395F0500725F00490F8B2F0A9
:103B200090606BE493F5F0E9C395F0401C90606CF5
:103B3000E493F5F0E9C395F0502AC21DC225E49044
:103B4000F995F090F996F0803490F995E0046001D1
:103B5000F0E0F5F0905FF2E493B5F000501FD21D55
:103B6000C225801990F996E0046001F0E0F5F0902C
:103B70005FF2E493B5F0005004C21DD22512B92DB6
:103B8000D24B30536D20366A20166790F9C2E02080
:103B9000E160306B5D90F4E0E0705790F4E8E07025
:103BA0005190F9B1E0604B90F9B3E0FAA3E0F975F8
:103BB000F00312A558FB90F9B1E0CB12B671FB905F
:103BC000F9B1F0EA90F9B3F0A3E9F090F9B2E0C3EB
:103BD0009B501F90F9B5E004F0FB905FA7E493C3FE
:103BE0009B501490F9C2E0A2934004D2E38002D229
:103BF000E2F0E490F9B5F075F00212E81A90FAA834
:103C0000F0F5F090F811E0C395F075F080400DA448
:103C10002480E5F03400F404F5F0800BF404A424CF
:103C200080E5F03400F5F090F811E025F0F890F818
:103C300011F075F004A490F964F0204F13905FE741
:103C4000E493F5F020671A905FE8E493F5F08011B3
:103C500090609EE493F5F020670790609FE493F5F1
:103C6000F0E8C395F0B39267200003023DDB205BD0
:103C7000519060D5E493C3984048201C4230493F9E
:103C800090F810E020E20330E117305C3590F8C383
:103C9000E0F5F004F0905F90E493B5F000502080E0
:103CA0001530561B90F8C3E0F5F004F0905FA1E4E6
:103CB00093B5F0005009D21C90F810E054FEF002C9
:103CC0003DDB9060D6E493C39850482024423049AD
:103CD0003F90F810E020E20330E117305C3590F8B7
:103CE000C3E0F5F004F0905F90E493B5F00050204D
:103CF000801530561B90F8C3E0F5F004F0905FA2F9
:103D0000E493B5F0005009D22490F810E054FEF08E
:103D1000023DDBC21CC224E490F8C3F090F810E02E
:103D200020E21F30E11C304919905F92E493F5F0D6
:103D300090F8C5E004F0B5F000400790F810E044BA
:103D400004F030530CE490F810F090F8C5F0023D08
:103D5000F2905F81E493C39892F0905F82E493C302
:103D600098A0F0B3500C90F810E0C2E7F020E03BD0
:103D7000802B90F810E0D2E7F0E490F8C4F0905F68
:103D800083E493F5F090F803E0046001F0B5F000EF
:103D90004049C22B90F810E04401F0803EE490F8D6
:103DA00003F090F810E054FEF0803090F810E0300E
:103DB000E224305C2120621E304F1B30491D905F91
:103DC00091E493F5F090F8C4E0046001F0B5F000E0
:103DD0004009D22B80C7E490F8C4F0206214905FB1
:103DE00096E493B5490090F810E082E2B0E050020A
:103DF000D22BA21D7225406190F8A9E0F990606B6A
:103E0000E493F5F0E9C395F0405C90606CE493F5C1
:103E1000F0E9C395F0504F90F827E0C9C3994019D5
:103E2000F5F0906068E493A4A8F090606AE493C30E
:103E300095F0500725F0F88002780090606DE493CB
:103E4000F5F090F824E0C39812ADC6C395F0500287
:103E50008852E890F824F08021906067E49390F80D
:103E600027F090F8B2F020540E909D3CAA57AB5C1E
:103E700012AE34F5528003755200A21D7225721ED7
:103E80007226403130490990F843E024014001F0A6
:103E9000AA57907208E55293FB9075EF12AE34FB6F
:103EA000907208E55293FC240854F02559FA906268
:103EB000ACEA93700A90FA9BE0C2E0F00240EC207A
:103EC000E70CF5F090FA9BE0C2E0F0023F9EE49030
:103ED000F82AF0906076E493C31390F896F0E4909B
:103EE000F897F075F007EAC3941040099062AC931C
:103EF00020E702C2F0EAC42410400AC49062AC93E6
:103F000020E702C2F1EAC394104010EAC424104032
:103F10000AC49062AC9320E7078010E5F0B4070B69
:103F200090FA9BE0D2E0F07CFF8032ECC39408541E
:103F30000FF87407C39557540FF9E9C3985005302B
:103F4000F105800630F003E98001E8F5F090FA9B76
:103F5000E0C2E0F0E5F0C4FC70030241018BF09098
:103F6000FF40E0A4F8A9F09063ACE54E93F5F012A1
:103F7000AD0412AD7EEC04602214F5F012AD04AA7B
:103F800000AB01C2AF90F82CE0F80582E0F9D2AFA7
:103F9000ECF404F5F012AD0412AD96024105E5F023
:103FA000B4200040027420FC905F96E493B5490071
:103FB00040030240EC90F88DE0C39C6008EC90F860
:103FC0008DF00240EC8BF0C2AF90F82CE0F8058247
:103FD000E0F9D2AF12AD499063ACE54E93A4C24470
:103FE00075E90075EA0088EB89ECF5ED85F0EE00E7
:103FF0000000000000E5E9AAEAABEBABECABEDABEF
:10400000EE2044D330E7010A90F896E0F80582E00C
:10401000F9E82AF8E93400F990F896E8F00582E921
:10402000F090F82AE0700BEA90F88AF090F88BF0A4
:10403000803890F88AE0C39A4007EA90F88AF080C6
:104040000D90F88BE0C39A5005EA90F88BF090F849
:104050008AE0F5F090F88BE0C395F0F5F09060E120
:10406000E493C395F050030240EC906076E493F53E
:10407000F090F82AE004F0B5F0028003024101C29A
:104080004488E989EA85F0ED75EE0000000000AA99
:10409000E9E5EAE5EBE5EC2044E590F8D0EC142501
:1040A00082F582E5833400F583EAF090F843E0B4CA
:1040B0000A004038E4F07810790075F02090F8D0CC
:1040C000E028F8E93400F9A3D5F0F512AD57905F78
:1040D00097E493F8905F98E493C912ACC690FF40C0
:1040E000F075F02090F8D0F0A3D5F0FBE490F82A1A
:1040F000F0906076E493C31390F896F0E490F8970C
:10410000F078FF79FFC2AF90F830E8F00582E9F06F
:10411000D2AFC249C24A90F898E004F090F804E0A7
:1041200004F0B43252E4F0304F0312B68DD249207D
:10413000580890F8ACE0046001F090F965E0046084
:1041400001F0306E23905F88E493F5F090F84FE033
:10415000C395F05001E4F5F0905F58E493B5F0009A
:104160005002E5F090F84FF090F805E004F0B43C10
:1041700006E4F0D24AC21530490890F807E004601E
:1041800001F030490B20530890F9D4E0046001F0AD
:10419000204D59204C0AE490F87CF0C24D02433D7A
:1041A0009060AAE493F5F090F87CE004F0C395F0F9
:1041B000402312B284905FE6E49390FA8BF0E4908F
:1041C000F87CF0D24D90F9A7E0C2E4F012EA321286
:1041D000ABC653FADF9060CAE493F50075F00012A5
:1041E000A558B500004002804902433D204C0280A2
:1041F000E490FA8BE0146003F080DA90F47DE054F0
:104200000870D290F4B7E0640260279060C9E4932C
:10421000F5F090F87CE004F0C395F040B890F47DA0
:10422000E04408F0752F00D26812C1B912CC920296
:10423000433DC2AF90F9D4E0600C90F9BFE0A24FCB
:1042400092E090F9BFF0758680D2AED2BE12B2F97C
:104250007801790090FD00C3E028F8E93400F9A363
:10426000E583B4FFF27A4090F4D2C3E028F8E93451
:1042700000F9A3DAF590F8FEE8F00582E9F0906025
:10428000CAE493F50075F00012A558B5000040038C
:104290000224C975C10075C900745512C8F490FA9A
:1042A0005912C96712C90D12C92A75B100306A0DB9
:1042B000C04E12BC1AD04E745590F9BEF07FFF125A
:1042C000CC33306A0612CAED12CB2F12CC6712CB58
:1042D000F074AA90F9BEF0E490F804F090F87CF045
:1042E0007B697C00DCFEDBFCD2AED2BE9060CAE40F
:1042F00093F50075F00012A558B5000040030224A4
:10430000C990F804E004F0B432D6E4F090A2B1E52C
:104310004E93F5F090F87CE0046001F0C395F04016
:10432000BF90F9A8E0C2E6F012EA32E490F8C2F0D9
:1043300078AB76A543F901D2AED2BE80FA90F88769
:10434000E0FA90F888E0FB906EC812AE96F5F09017
:10435000F931E09084BA9325F090F802F0204D688E
:1043600020565F305859E57C540F53F6F0700343E4
:10437000E80F90F9A8E0C2E4C2E5F0C24E90F81050
:10438000E054FDF0E57954086006A273501A8022CB
:1043900090606EE493F5F090F828E03049040470E2
:1043A0000114F0C395F0400A90F9A7E0C2E3F002CF
:1043B0004463306B0790F9A7E0D2E3F00244630254
:1043C00044B32058030245AAC256C23153F9BF3044
:1043D0000D0343F940D253D254D25190605CE49320
:1043E00090F9A6F090F9B7F07568FF7569FF754A06
:1043F00000E490F810F090F8C5F0E57A54027009E6
:10440000906061E49390FF47F0906070E49390F8BF
:104410002CF0906071E49390F82DF0204C08906A95
:10442000A1E54E93F564E490F84AF090F89EF0F51B
:104430005390F841F090F842F090F837F090F83847
:10444000F090F89BF090F89CF090F82EF090F82FF8
:10445000F090F808F090F809F090F89DF012AC9107
:1044600012ACA5E54990F80AF0E57A5404700E9074
:10447000F8AFE0F5F09071A0E5F093F56278802058
:104480003E0C8610088611088612088613088614CA
:10449000088615088616088617303E0C0886100810
:1044A0008611088612088613025053E490F872F0C1
:1044B00002459BE5795408D3600DA273400990F939
:1044C000A7E0C2E3F0800A306B0790F9A7E0D2E3DF
:1044D000F090F872E070D92018D190F887E0FA9047
:1044E000F888E0FB90715212AE96F5F090F997E0E3
:1044F00030E007908C4EE54E93A4907208E55293FD
:10450000240854F0C4907A7793A4E5F090F872F000
:104510006099F97800FB7A00856FF0B2F712AD046C
:10452000E56F30E70912AD96500478FF79FF90608F
:1045300057E493F5F012AD04AA507B0012AD9675C6
:10454000F01012AD04C24485F0E988EA89EB75ECFD
:104550000075ED0C75EE00000000000000AAE9AB4C
:10456000EAE5EBE5ECE5EDE5EE2044D953F6F0C2E3
:10457000AFE57C540F700353E8F0F5C2D2AFE5C24B
:104580002AFAE5C33BF5D3F5D5F5D7F5E38AD28A08
:10459000D48AD68AE243F60F43E80F200A0790F93F
:1045A00097E0D2E0F0E490F829F030532A908A990D
:1045B000E54E93F5F0E553C395F0501790605AE43B
:1045C00093F5F0E553C395F092514019E490F872D9
:1045D000F08012C253C25130490890F9A5E0600240
:1045E00014F0024625E57A5404700E90F8AFE0F519
:1045F000F09071A0E5F093F562E57A542070089090
:104600006AA1E54E93F56412AC9112ACA590F872D4
:10461000E0600BE5E8F4540F700890F872F0D255A2
:10462000D256024FC9E57D54046003C380189072CE
:1046300008E55293240854F02559FA9063D3EA937D
:10464000A25D82E172E0925D30591290F887E0FA43
:1046500090F888E0FB9087E412AE96800312E93070
:10466000F560E57A5404700312E955E57A54027056
:104670000A9064D3E55F9390FF47F0AA57907208C1
:10468000E55293FB907E0712AE34FA907BC7E55457
:1046900054FEF5F093F8E5F00493F98AF012AD3B7F
:1046A00012AD0490F8BAE8F00582E9F090F934E030
:1046B000F80582E0F9908F2AE55893F5F012AD04E1
:1046C000E9600678FF790F800B850001A8F012AD34
:1046D0008A12AD7690FA92E8F00582E9F012AD7692
:1046E00090F9D1E8F00582E9F0907F07E5589390C2
:1046F000F943F0907F27E5589390F953F0907F4766
:10470000E5589390F954F0AA57907208E55293FB3C
:10471000908C7512AE34FC90F931E0FA90F8F1E02B
:10472000FB90900D12AE96C39480500CF4048CF064
:10473000A47480C395F080098CF0A42480E5F03443
:104740008090F8F0F090F87DE0FA90FF4DE0FB905B
:10475000671312AE3490FF4FF0AA57AB5C90819371
:1047600012AE34FC90FF4FE0C39480500CF4048CE4
:10477000F0A47480C395F080098CF0A42480E5F047
:104780003480F5F090F8F0E0A42440500205F030B9
:10479000F70474FF8005A2E7E5F03390F97FF0A2FB
:1047A0001E7226721D7225503A12E987E57A54204E
:1047B0007008906F0FE54E93F564305411908A990C
:1047C000E54E93F5F0E553C395F04002C2543059DD
:1047D00015908AE0E55893F5F0E552C395F040183E
:1047E0000248AB0248B9908AC0E55893F5F0E5520B
:1047F000C395F040030248ABD259E57A54047013D4
:10480000906F9DE54E93F5F0906F7DE55893C395BD
:10481000F0F563906F56E54E9390F849F0C39553C9
:10482000400730E709747F800520E7027480F56D4A
:10483000E57A54047056906095E493F5F0E56DF8D0
:1048400012ADC6C395F05002780012ADA575F00800
:1048500012AD16E8A8F0F9E920E709906093E49317
:10486000F5F08007906094E493F5F012AD1612AD68
:10487000AFF5F0906096E493F8906097E493F9E5D3
:10488000F012ACD7F5F0E56325F0F5629060E9E44D
:1048900093F5F0205B079060EAE493F5F0E554B5FA
:1048A000F000B3925B305B05025053C259A21D72F7
:1048B000255003024EB9024F60205345204F4290CD
:1048C000F80AE0F5F0905F7EE493B5F0005004D272
:1048D0004F802E905F7DE493B5F000500E90F9BFAD
:1048E000E030E007905F7FE4938005905F80E49381
:1048F00090F8F2F0F5F090F8F7E0B5F0004002D251
:104900004F300033205830905F89E493F5F090F8F1
:104910000DE0B5F0005020905F8AE493B549005057
:1049200016204F03024964905F87E493F5F090F8F6
:1049300095E0B5F000401590F9A8E0C2E4C2E5F0BA
:10494000C24E90F810E054FDF00249DB20130990AC
:10495000F9A8E0D2E4D2E5F0D24E90F810E044029B
:10496000F00249DB90F810E020E005202B0280DC0B
:1049700090F978E0F5F0C4540FFAE5F0540FC4FB59
:10498000907F8E12AE96F5F090F963F060BE304ED7
:104990002690F8F3E004F0F5F0905F93E493C5F00F
:1049A000B5F000403690F9A8E0C2E4C2E5F0C24E8E
:1049B000E490F8F4F0802490F8F4E0046001F090C2
:1049C000F8F4E0B5F000401320130990F9A8E0D204
:1049D000E4D2E5F0D24EE490F8F3F0E57A5440707A
:1049E0003090F887E0FA90F888E0FB906F5612AEAE
:1049F00096F5F090F84FE025F0500474FF8016F51E
:104A0000F090F9D4E09090949325F0500874FF80D2
:104A10000490F849E0F5F0A8F0206E07906086E475
:104A2000938005905F57E493A4E825F0500274FF4B
:104A300090F847F0F5F0906087E493A490F847E091
:104A400025F0500274FF90F848F075F000E57A54B4
:104A5000407011300C06202E03306D0890756DE506
:104A60004E93F5F0E825F0500520F70274FF90F81A
:104A700049F0906F9DE54E93F5F0906F7DE558936A
:104A8000C395F0F9F56330592E908AE0E55893F517
:104A9000F0E552C395F04009740190F97AF0024BA9
:104AA0000C20620D90F848E0F5F0E553C395F05006
:104AB00003024C0B024C1AE56B602C908AE0E5581F
:104AC00093F5F0E552C395F0504290F847E0F5F0C9
:104AD000E553C395F05003024BB9E56BC394025004
:104AE00003024C22024CC8908AC0E55893F5F0E5C9
:104AF00052C395F04003024B5A2062DB90F848E025
:104B0000F5F0E553C395F040CE024C1AE56B0490E6
:104B1000F97AF090FA94E0D2E0F0E490FA96F0900E
:104B2000FF46F0C259756B00C22FE490F986F090F1
:104B3000F97AE0F5F0909054E5F093F5F0908796CF
:104B4000E54E93A4F8A9F012AD8A90F97BE8F00540
:104B500082E9F090F944E0D2E0F090FA94E020E0AD
:104B600007905F6BE493800C90F97AE0F5F09090F9
:104B700074E5F09390F99FF090FA94E020E007E458
:104B800090FA96F0801B90FA96E0046001F0F5F040
:104B9000905FF6E493B5F000500790FA94E0D2E10C
:104BA000F09060D8E493F5F090F9D4E0B5F00040CF
:104BB00002C26212B824024D8F756B00D259105494
:104BC0003590F849E0F5F0E55390F84AF0C395F0D8
:104BD000500A90F849E090F84AF0802F30622C900B
:104BE000F847E0F5F0E553B5F000401F90F847E0D6
:104BF00090F84AF0801590608FE493F5F090F849B2
:104C0000E025F0500274FF90F84AF012B93912A76B
:104C1000D212AA8F12B8C6024D9A756B01C259758D
:104C20006C0012B939E57A5404702890F844E024F5
:104C300080F5F0E5632480B5F0058563628014504B
:104C40000AE5F014C39480F5628008E5F004C3948B
:104C500080F56220065490608AE493F5F0E549C33C
:104C600095F04046905F77E493F5F090F894E0C3B8
:104C700095F04012906050E493F5F090F8AEE0C3E8
:104C800095F0400280249060EAE493F5F0E554C387
:104C900095F0501C300C19202E1690607BE493F593
:104CA000F090F8AEE0C395F0500612B824024D8F94
:104CB00090608DE493F5F0056CE56CC395F040EAE7
:104CC000756B02C259756C0012B87CAA6AE57A54F9
:104CD00020700312ADDBE57A54047003856362E54E
:104CE0006BB402028003B4041290608EE493F5F07A
:104CF000056CE56CC395F04010056BE57A540470C3
:104D000008906FC4E55893F562300C60202E5DE585
:104D10006BB402028003B4032990607BE493F5F046
:104D200090F8AEE0C395F050439060E9E493F5F05D
:104D3000E554C395F05035E56B2402F56B12B824A9
:104D4000804D90607BE493F5F090F8AEE0C395F071
:104D500050139060EAE493F5F0E554C395F05005E4
:104D600012B824802AE56BC39402F56BC25C12B9B9
:104D70003912AFD7D25BC255D25690FF53E0A2147E
:104D800092E0F012AC91740490F8B1F0025053AA82
:104D90006AE57A5420700312ADDB300175E57B546F
:104DA00004706F9060D1E493F5F0E549C395F0404D
:104DB00061304A0B90F868E060051490F868F09054
:104DC000F868E0300003205F49305E37701DE57BF6
:104DD000540470087400F57790F806F09060D0E401
:104DE0009390F868F0C25EC25C8027E57B54047043
:104DF0001090746DAA57AB5C12AE34F57790F8063C
:104E0000F0800F700D9060CFE49390F868F0C25C72
:104E1000D25EA21E7226721D7225500EE57B5404CE
:104E200070087400F57790F806F0200003024EB386
:104E30009060A3E493F5F0E549C395F040EF905FEF
:104E4000A5E493F5F0E549C395F050E19060A0E446
:104E500093F5F090F80AE0C395F050099060A1E452
:104E600093F5F080079060A2E493F5F090F807E0E6
:104E7000C395F0403E90F810E030E0379063D3E502
:104E80005F9330E22EA21C7224722C722D722B9032
:104E9000F9C2E072E7A04F401A75608020590612EF
:104EA000E923205A14E57D54026002C25C12A56910
:104EB000024F6020590312E923305903024F5E90DC
:104EC000607DE493906A5393F5F0E560C395F050EC
:104ED00001E4F990F887E0FA90F888E0FB906A7AAC
:104EE00012AE9689F0A4A9F090F887E0FA90F888BD
:104EF000E0FB906A5312AE9629F560205D03E480D2
:104F00002978ACE6F5F008E6B5F0004002F5F008C7
:104F1000E6B5F0004002F5F008E6B5F0004002F515
:104F2000F0E5F0B41F004002741F90FF50F090A312
:104F30001893F5F0E560C395F04020F560905F8E22
:104F4000E493F5F090F895E0B5F0004011905F8F94
:104F5000E493F5F0E560C395F05001E4F560C25CC0
:104F6000300325305D22A21E7226401C905F70E443
:104F700093B54900501290F933E030E50512B4E0E2
:104F8000800312B3B612B60512AFACC25BC255D2E3
:104F90005690782FE54E93F5F0C39560500385F059
:104FA0006090F89BE0F80582E0F9908A32E54E9334
:104FB000F5F0E8C395F0F8E99400F95003E4F8F946
:104FC00090F89BE8F00582E9F0E57A54017006124A
:104FD000AF72856061201D46202543201E4020269B
:104FE0003D201C3A202437202B34202C31202D2E1C
:104FF00090F9C2E020E72730002490FD00AA57ABCB
:105000005C12AEB2305C19F5F0E56E20E70825F0D1
:10501000500E74F0801125F04006740F80097480E2
:10502000780F79F012ACC6F5F0E57A54107003856C
:10503000F06F205906E56B70028015908E2AAA57F2
:10504000AB5C12AE34780F79F012ACC6F54F80032A
:10505000754F80E57A5404700EE57A540860089024
:10506000F88FE02562F562E56230E701E490FAAD81
:10507000F090F938E0F5F0E562240AC395F05002AB
:10508000C3E4940AF56212B702304B4D20594AE549
:105090007A54047044905FA4E493F5F090F886E0AD
:1050A00004600490F886F0B5F000500575F00080BB
:1050B0000CE490F886F0906080E493F5F0E56224CB
:1050C00080F890F844E02480C398500DE0248025B7
:1050D000F0C39850042562F562E56290F844F0F55B
:1050E000F020E71490F9A0E020E70925F030E7026E
:1050F000747F801625F0801290F9A0E030E7092532
:10510000F020E7027480800225F0FA90607EE4933C
:10511000F890FAADE0F5F0905F8BE49325F0F9EAB2
:1051200012ACD7F890F8C1F090FAAAE0FC9060D7E2
:10513000E493B54900EC92E0FC9060E8E493B55349
:1051400000B3EC92E1FC90F8AEE0F5F09060F8E48A
:1051500093B5F000B3EC92E2FCA22EB392E3FCA272
:1051600059B392E4FCA253B392E5FC543FB43F0020
:10517000B392E790FAAAF050079060F9E493801197
:1051800090607FE493F5F090FAABE0B5F000500149
:105190000490FAABF090607EE493F890FAABE0F9FB
:1051A00090F8C1E012ACD7F56290F8C1F0E53DB4DB
:1051B00004005007E53CB41E004003022618E53CFD
:1051C000B53E7D90605FE493F8906060E493F9856C
:1051D00054F090605EE493A490FF47E0243CC395B4
:1051E000F050022478C3940B5002247812ACC6F815
:1051F00090F959F0E53DB2E175F01EA4253CF99017
:10520000F95AF0C3950060384014B43C00400BE9F3
:1052100004B47800400294788017E9148013F404F1
:10522000B43C00400AE9C39401500224788002E9AA
:105230000475F01E84B2E1C2AF85F03EF53FD2AFF7
:1052400090F9A0E090FAA6F09060E3E493A2E092D7
:105250003E90F978E0AA57FB908B00300D039091B7
:105260009412AE3490F84DF075F015A4F8A9F01230
:10527000AD768844894590FF58E8F00582E9F085CD
:1052800054F090605DE493A4E5F02562FA90F84D47
:10529000E0F5F090F94A30530390FF49E0F80582B9
:1052A000E0F912AD04E9600278FFE875F07BA4E54F
:1052B000F0C3940E923DE5F0780679AE12ACC67557
:1052C000F0068490F800F0E5F02390F801F0788083
:1052D0007B2FE8C3948030E2027B11030379AC2971
:1052E000F9E7F5F090FAA6E0C395F0400575F000F7
:1052F0008004F404F5F0E5F090FAA7F07490C39AF6
:10530000305D0225F0C39484500BF5F0EB2427FBAD
:10531000E5F0C3940475F00C842BB43C0040029477
:105320003CFBFCA9F090F801E0F5F0E9C395F050E2
:1053300003240C1C905ED093F5F0905ED0E993F9B5
:1053400090F800E0CCC39C5004243C8007B43C009F
:105350004002943CC2AFF608A6F008A60308A601D6
:10536000D2AF08B8900280030252D0E579540260AF
:1053700004A271805AA21B7223726E401930410937
:105380009060C7E493F5F080079060C8E493F5F06F
:10539000E549B5F000B330593520413250309060C6
:1053A000EEE493F5F090F8BFE0701C9060EDE493AC
:1053B0002564F564F8790012AD6590F845E8F005CC
:1053C00082E9F012ABBAE404B5F000B35001E49006
:1053D000F8BFF0924190F9A7E092E790F9A7F0E5C5
:1053E0007954046007A27250450254BA905F89E470
:1053F00093F5F090F80DE0B5F0005076206E09902E
:105400005FBAE493F5F08007905FBBE493F5F0E5B5
:1054100049B5F000505C75F00612A558A2E7B390AC
:10542000F86FE033F06009F46048A26E40028042F9
:10543000905F60E493F5F090F9D4E0B5F00040326D
:10544000A26E4009905F5DE493F5F08007905F5E87
:10545000E493F5F0E552B5F000405F905F61E493AE
:10546000F5F090F870E0B5F00050070490F870F097
:10547000805890F9A7E0A2E5726E503C90F9A7E041
:10548000C2E5F0E490F871F090F84FF0905FE5E439
:1054900093F5F090F8AEE0B5F00050153049199052
:1054A0005FE4E493F5F090FA8CE004F0B5F000408E
:1054B00007C26EE490FA8CF0807490F9A7E020E5C2
:1054C0006DE490F870F090FA8CF0305940905F5F86
:1054D000E493F5F090F871E07029905F5CE4932517
:1054E00064F564905F5BE493B549005009905F5A9E
:1054F000E4932564F564905F59E49390F84FF012BB
:10550000ABBAE40490F871F0B5F0004021205910D6
:10551000905FE3E493F5F090F8AEE0B5F000400E54
:10552000E490F871F090F9A7E0D2E5F0D26E9060C7
:10553000E0E493B55400924590605AE493B553006B
:105540005015A22A90F98BE03400B40A004004D22E
:1055500010800490F98BF085225B905FA0E493B5F6
:1055600053004003535BEF305303535BEF9060DA1B
:10557000E493525B9060DBE49352239060DCE4930D
:1055800052249060DDE4935225905FADE493F5F0F2
:1055900090F9C2E055F0F0304A0974FE5222E490CE
:1055A000F98BF0C24490F82EE0F80582E0F98555B9
:1055B000F012AD04E5612480FAE4340085F0E98856
:1055C000EA89EB75EC008AEDF5EE000000000000C2
:1055D000A8E9A9EAE5EBE5ECE5EDE5EE2044C485B4
:1055E0006FF0AA00AB01B2F712AD04E56F30E7032C
:1055F00012AD9675F0E912AD04ACF0305B067800A0
:1056000079007C0090F862E8F00582E9F090F8AE4D
:10561000E0F5F06033C24490F862E0F80582E0F90A
:105620008CE988EA89EB75EC0085F0ED75EE0000F9
:105630000000000000A8E9A9EAAAEBABECE5EDE563
:10564000EE2044D1EA4B600478FF79FF90F874E8CB
:10565000F00582E9F0905F63E493F9C313F8E9750C
:10566000F00384F5F090F8ADE004F0B5F00678C0F2
:10567000E4C68015B5000678C1E4C6800CB50133D8
:10568000E490F8ADF078C2E4C690F8AEF0FA2402E7
:1056900075F00484B40F004002740F90F948F08A4A
:1056A000F09060F0E493206D059060F1E493C39571
:1056B000F0926D300C4A12B7DD306D04C22E80219D
:1056C000202E3D9060F2E493F5F0E559B5F00050DE
:1056D00002800E9060F3E493F5F0E55EB5F00050C3
:1056E00007E490F8C0F080183049159060F4E49316
:1056F000F5F090F8C0E00490F8C0F0B5F002D22EBA
:1057000030450302578A205F0302578A90F889E0E8
:10571000F8540FF5F090F88EE0F9540FC395F0129D
:10572000ADC6F5F0E854F0C4F8E954F0C4C39812DB
:10573000ADC6C395F05001E425F0F5F09060A7E404
:1057400093A4F5F090F88CE0C395F050027400F843
:1057500090F88CE025F0500274FFF990F889E09001
:10576000FD00F582E0FA12ACC6786079A012ACC6F2
:10577000F0F5F0E582B55F08EAC395F0256EF56EA9
:1057800090F889E004F07002C25FA24C724D5003A1
:1057900002599730690302592030490612B08C1221
:1057A000B0D69060DAE4934480555BF5F090F4CA8B
:1057B000E045F0F09060DBE4935523F5F090F4CBF6
:1057C000E045F0F09060DCE4935524F5F090F4CCE3
:1057D000E045F0F09060DDE4935525F5F090F4CDD0
:1057E000E045F0F0905FADE493F5F090F9C2E0553C
:1057F000F0F5F090F4CEE045F0F0905FB0E493F572
:10580000F090F9C4E055F0F5F090F4CFE045F0F0F9
:10581000905FB1E493F5F090F9C5E055F0F5F090A4
:10582000F4D0E045F0F0905FB2E493F5F090F9C663
:10583000E055F0F5F090F4D1E045F0F030497D7599
:10584000920290F4C975920390F51275920490CA71
:10585000877A0075920090F4D2EAB44002805D54D9
:1058600007700C759202A3E0F5F0E4F0759200E584
:10587000F013F5F0E0400E20E725603104B4140089
:10588000400CE48009600574FFF080057401F0802D
:105890001C759204E493759203F0759200800E7566
:1058A0009204E49354BF759203F07592000AA375B5
:1058B0009203A3759204A3759200809D200B613022
:1058C000495E905FB4E493FC905FB3E493FBC092B5
:1058D00075920290F51275920390F552D092E4FA07
:1058E00090F4D2EAB440028037E030E722C0E0C052
:1058F00092759203ECF0D092D0E0304A12148BF003
:10590000B5F00CC092759202E0547FF0D092E4F0B2
:105910000AA3C092759202A3759203A3D09280C38A
:1059200012C57D12C527E57954017062204D68D3F8
:10593000305654905FE1E493F5F090F807E0B5F04D
:1059400000404BC27012C516504190F9C2E030E7DA
:105950002D90FAA1E054F0702590F4C9E004F5F020
:1059600020E70AB41900401175F080800CD2705401
:105970007FB41900400375F000E5F0F08010E4906A
:10598000F4C9F0D2708007C270800512EA81A2705B
:1059900090F9A7E092E4F0306803025A3230694D82
:1059A00090F4B8E004F064967012306A0A90F4B98A
:1059B000E0046001F0C26B12D04C803190F4BAE088
:1059C0006014905FF7E493F5F090FA97E004F0B577
:1059D000F0004019800690F4B6E0701112CEB3E4E6
:1059E00090F4BAF090FA97F075780CD27B90F4C5E9
:1059F000E030E103206B2F12B28412EA3290F4C53A
:105A0000E0FC54036403601EEC30E6173049179045
:105A1000F4C6E014F0700FEC54BF90F4C5F0437975
:105A200001C27012D25F307B1E207C0812D51A1280
:105A3000D55C801330690512CE6A800B12DBD3303F
:105A40006B05E490F4B9F0306903025ACD30797DEA
:105A5000789186E030E57630561D906082E493F5CB
:105A600064758680D2AED2BEE565656470F6E56584
:105A700090F9C1F012B284C2AF74FF12C8F412B32D
:105A80000812B36190FA5912C96712C90D12C92AD6
:105A9000745590F9B0F07801790090FD00C3E028CA
:105AA000F8E93400F9A3E583B4FFF27A4090F4D228
:105AB000C3E028F8E93400F9A3DAF590F8FEE8F03D
:105AC0000582E9F075867FD2AED2BE80FE304503F6
:105AD000025C6990F9DCE0707F20470EE490F8FAF0
