:0700020070012275F040A41B
:06001A00000000000000E0
:10002C0090609AE493F8740193F9E82AFAE93BFB9F
:0A003C00906098E493F8740193F9C2
:04004E0000000000AE
:06005A00600478FF79FF4D
:01006400FBA0
:02006D00F5F0AC
:10007200E0F890F93BE0C398500CF9E4C399A4E48A
:0E008200C395F002008BA4E5F028F875F01A83
:10009300E0C398500CF9E4C399A4E4C395F00200BB
:0700A300A7A4E5F028F0F826
:0B00B000F5F0E8A430E70205F0E5F0F1
:0100BE00F051
:0400CB000000000031
:0100D7000028
:0600E60000000000000014
:0A00F800905EF2E493FA058293FB98
:0A010500E44018905EF4E493F5F076
:10011500E97006E8B4F000400274F090F9A0F0220E
:02012E00F022BD
:00000001FF
